{
	"contracts/WatchTrader.sol": {
		"WatchTrader": {
			"abi": [
				{
					"inputs": [
						{
							"internalType": "uint256",
							"name": "price",
							"type": "uint256"
						},
						{
							"internalType": "address",
							"name": "itemContractAddress",
							"type": "address"
						},
						{
							"internalType": "uint256",
							"name": "itemID",
							"type": "uint256"
						}
					],
					"name": "addListing",
					"outputs": [],
					"stateMutability": "nonpayable",
					"type": "function"
				},
				{
					"inputs": [
						{
							"internalType": "address",
							"name": "",
							"type": "address"
						}
					],
					"name": "balances",
					"outputs": [
						{
							"internalType": "uint256",
							"name": "",
							"type": "uint256"
						}
					],
					"stateMutability": "view",
					"type": "function"
				},
				{
					"inputs": [
						{
							"internalType": "address",
							"name": "",
							"type": "address"
						},
						{
							"internalType": "uint256",
							"name": "",
							"type": "uint256"
						}
					],
					"name": "listings",
					"outputs": [
						{
							"internalType": "uint256",
							"name": "price",
							"type": "uint256"
						},
						{
							"internalType": "address",
							"name": "seller",
							"type": "address"
						}
					],
					"stateMutability": "view",
					"type": "function"
				},
				{
					"inputs": [
						{
							"internalType": "address",
							"name": "itemContractAddress",
							"type": "address"
						},
						{
							"internalType": "uint256",
							"name": "itemID",
							"type": "uint256"
						},
						{
							"internalType": "uint256",
							"name": "amount",
							"type": "uint256"
						}
					],
					"name": "purchase",
					"outputs": [],
					"stateMutability": "payable",
					"type": "function"
				},
				{
					"inputs": [
						{
							"internalType": "uint256",
							"name": "amount",
							"type": "uint256"
						},
						{
							"internalType": "address payable",
							"name": "destAddr",
							"type": "address"
						}
					],
					"name": "withdraw",
					"outputs": [],
					"stateMutability": "nonpayable",
					"type": "function"
				}
			],
			"devdoc": {
				"kind": "dev",
				"methods": {},
				"version": 1
			},
			"evm": {
				"assembly": "    /* \"contracts/WatchTrader.sol\":147:2125  contract WatchTrader{... */\n  mstore(0x40, 0x80)\n  callvalue\n  dup1\n  iszero\n  tag_1\n  jumpi\n  0x00\n  dup1\n  revert\ntag_1:\n  pop\n  dataSize(sub_0)\n  dup1\n  dataOffset(sub_0)\n  0x00\n  codecopy\n  0x00\n  return\nstop\n\nsub_0: assembly {\n        /* \"contracts/WatchTrader.sol\":147:2125  contract WatchTrader{... */\n      mstore(0x40, 0x80)\n      jumpi(tag_1, lt(calldatasize, 0x04))\n      shr(0xe0, calldataload(0x00))\n      dup1\n      0x07df30\n      eq\n      tag_2\n      jumpi\n      dup1\n      0xf714ce\n      eq\n      tag_3\n      jumpi\n      dup1\n      0x27e235e3\n      eq\n      tag_4\n      jumpi\n      dup1\n      0x80abbe57\n      eq\n      tag_5\n      jumpi\n      dup1\n      0x98968f15\n      eq\n      tag_6\n      jumpi\n    tag_1:\n      0x00\n      dup1\n      revert\n        /* \"contracts/WatchTrader.sol\":250:313  mapping(address => mapping(uint256 => Listing)) public listings */\n    tag_2:\n      callvalue\n      dup1\n      iszero\n      tag_7\n      jumpi\n      0x00\n      dup1\n      revert\n    tag_7:\n      pop\n      tag_8\n      0x04\n      dup1\n      calldatasize\n      sub\n      dup2\n      add\n      swap1\n      tag_9\n      swap2\n      swap1\n      tag_10\n      jump\t// in\n    tag_9:\n      tag_11\n      jump\t// in\n    tag_8:\n      mload(0x40)\n      tag_12\n      swap3\n      swap2\n      swap1\n      tag_13\n      jump\t// in\n    tag_12:\n      mload(0x40)\n      dup1\n      swap2\n      sub\n      swap1\n      return\n        /* \"contracts/WatchTrader.sol\":1903:2123  function withdraw(uint256 amount, address payable destAddr)public{... */\n    tag_3:\n      callvalue\n      dup1\n      iszero\n      tag_14\n      jumpi\n      0x00\n      dup1\n      revert\n    tag_14:\n      pop\n      tag_15\n      0x04\n      dup1\n      calldatasize\n      sub\n      dup2\n      add\n      swap1\n      tag_16\n      swap2\n      swap1\n      tag_17\n      jump\t// in\n    tag_16:\n      tag_18\n      jump\t// in\n    tag_15:\n      stop\n        /* \"contracts/WatchTrader.sol\":319:362  mapping(address => uint256) public balances */\n    tag_4:\n      callvalue\n      dup1\n      iszero\n      tag_19\n      jumpi\n      0x00\n      dup1\n      revert\n    tag_19:\n      pop\n      tag_20\n      0x04\n      dup1\n      calldatasize\n      sub\n      dup2\n      add\n      swap1\n      tag_21\n      swap2\n      swap1\n      tag_22\n      jump\t// in\n    tag_21:\n      tag_23\n      jump\t// in\n    tag_20:\n      mload(0x40)\n      tag_24\n      swap2\n      swap1\n      tag_25\n      jump\t// in\n    tag_24:\n      mload(0x40)\n      dup1\n      swap2\n      sub\n      swap1\n      return\n        /* \"contracts/WatchTrader.sol\":635:1057  function addListing(uint256 price, address itemContractAddress, uint256 itemID) public{... */\n    tag_5:\n      callvalue\n      dup1\n      iszero\n      tag_26\n      jumpi\n      0x00\n      dup1\n      revert\n    tag_26:\n      pop\n      tag_27\n      0x04\n      dup1\n      calldatasize\n      sub\n      dup2\n      add\n      swap1\n      tag_28\n      swap2\n      swap1\n      tag_29\n      jump\t// in\n    tag_28:\n      tag_30\n      jump\t// in\n    tag_27:\n      stop\n        /* \"contracts/WatchTrader.sol\":1268:1712  function purchase(address itemContractAddress, uint256 itemID, uint256 amount) public payable {... */\n    tag_6:\n      tag_31\n      0x04\n      dup1\n      calldatasize\n      sub\n      dup2\n      add\n      swap1\n      tag_32\n      swap2\n      swap1\n      tag_33\n      jump\t// in\n    tag_32:\n      tag_34\n      jump\t// in\n    tag_31:\n      stop\n        /* \"contracts/WatchTrader.sol\":250:313  mapping(address => mapping(uint256 => Listing)) public listings */\n    tag_11:\n      mstore(0x20, 0x00)\n      dup2\n      0x00\n      mstore\n      mstore(0x20, keccak256(0x00, 0x40))\n      dup1\n      0x00\n      mstore\n      keccak256(0x00, 0x40)\n      0x00\n      swap2\n      pop\n      swap2\n      pop\n      pop\n      dup1\n      0x00\n      add\n      sload\n      swap1\n      dup1\n      0x01\n      add\n      0x00\n      swap1\n      sload\n      swap1\n      0x0100\n      exp\n      swap1\n      div\n      0xffffffffffffffffffffffffffffffffffffffff\n      and\n      swap1\n      pop\n      dup3\n      jump\t// out\n        /* \"contracts/WatchTrader.sol\":1903:2123  function withdraw(uint256 amount, address payable destAddr)public{... */\n    tag_18:\n        /* \"contracts/WatchTrader.sol\":1996:2004  balances */\n      0x01\n        /* \"contracts/WatchTrader.sol\":1996:2016  balances[msg.sender] */\n      0x00\n        /* \"contracts/WatchTrader.sol\":2005:2015  msg.sender */\n      caller\n        /* \"contracts/WatchTrader.sol\":1996:2016  balances[msg.sender] */\n      0xffffffffffffffffffffffffffffffffffffffff\n      and\n      0xffffffffffffffffffffffffffffffffffffffff\n      and\n      dup2\n      mstore\n      0x20\n      add\n      swap1\n      dup2\n      mstore\n      0x20\n      add\n      0x00\n      keccak256\n      sload\n        /* \"contracts/WatchTrader.sol\":1986:1992  amount */\n      dup3\n        /* \"contracts/WatchTrader.sol\":1986:2016  amount <= balances[msg.sender] */\n      gt\n      iszero\n        /* \"contracts/WatchTrader.sol\":1978:2040  require(amount <= balances[msg.sender], \"Insufficient funds.\") */\n      tag_36\n      jumpi\n      mload(0x40)\n      0x08c379a000000000000000000000000000000000000000000000000000000000\n      dup2\n      mstore\n      0x04\n      add\n      tag_37\n      swap1\n      tag_38\n      jump\t// in\n    tag_37:\n      mload(0x40)\n      dup1\n      swap2\n      sub\n      swap1\n      revert\n    tag_36:\n        /* \"contracts/WatchTrader.sol\":2051:2059  destAddr */\n      dup1\n        /* \"contracts/WatchTrader.sol\":2051:2068  destAddr.transfer */\n      0xffffffffffffffffffffffffffffffffffffffff\n      and\n        /* \"contracts/WatchTrader.sol\":2051:2076  destAddr.transfer(amount) */\n      0x08fc\n        /* \"contracts/WatchTrader.sol\":2069:2075  amount */\n      dup4\n        /* \"contracts/WatchTrader.sol\":2051:2076  destAddr.transfer(amount) */\n      swap1\n      dup2\n      iszero\n      mul\n      swap1\n      mload(0x40)\n      0x00\n      mload(0x40)\n      dup1\n      dup4\n      sub\n      dup2\n      dup6\n      dup9\n      dup9\n      call\n      swap4\n      pop\n      pop\n      pop\n      pop\n      iszero\n      dup1\n      iszero\n      tag_40\n      jumpi\n      returndatasize\n      0x00\n      dup1\n      returndatacopy\n      revert(0x00, returndatasize)\n    tag_40:\n      pop\n        /* \"contracts/WatchTrader.sol\":2110:2116  amount */\n      dup2\n        /* \"contracts/WatchTrader.sol\":2086:2094  balances */\n      0x01\n        /* \"contracts/WatchTrader.sol\":2086:2106  balances[msg.sender] */\n      0x00\n        /* \"contracts/WatchTrader.sol\":2095:2105  msg.sender */\n      caller\n        /* \"contracts/WatchTrader.sol\":2086:2106  balances[msg.sender] */\n      0xffffffffffffffffffffffffffffffffffffffff\n      and\n      0xffffffffffffffffffffffffffffffffffffffff\n      and\n      dup2\n      mstore\n      0x20\n      add\n      swap1\n      dup2\n      mstore\n      0x20\n      add\n      0x00\n      keccak256\n      0x00\n        /* \"contracts/WatchTrader.sol\":2086:2116  balances[msg.sender] -= amount */\n      dup3\n      dup3\n      sload\n      tag_41\n      swap2\n      swap1\n      tag_42\n      jump\t// in\n    tag_41:\n      swap3\n      pop\n      pop\n      dup2\n      swap1\n      sstore\n      pop\n        /* \"contracts/WatchTrader.sol\":1903:2123  function withdraw(uint256 amount, address payable destAddr)public{... */\n      pop\n      pop\n      jump\t// out\n        /* \"contracts/WatchTrader.sol\":319:362  mapping(address => uint256) public balances */\n    tag_23:\n      mstore(0x20, 0x01)\n      dup1\n      0x00\n      mstore\n      keccak256(0x00, 0x40)\n      0x00\n      swap2\n      pop\n      swap1\n      pop\n      sload\n      dup2\n      jump\t// out\n        /* \"contracts/WatchTrader.sol\":635:1057  function addListing(uint256 price, address itemContractAddress, uint256 itemID) public{... */\n    tag_30:\n        /* \"contracts/WatchTrader.sol\":731:744  ERC1155 token */\n      0x00\n        /* \"contracts/WatchTrader.sol\":755:774  itemContractAddress */\n      dup3\n        /* \"contracts/WatchTrader.sol\":731:775  ERC1155 token = ERC1155(itemContractAddress) */\n      swap1\n      pop\n        /* \"contracts/WatchTrader.sol\":831:832  0 */\n      0x00\n        /* \"contracts/WatchTrader.sol\":793:798  token */\n      dup2\n        /* \"contracts/WatchTrader.sol\":793:808  token.balanceOf */\n      0xffffffffffffffffffffffffffffffffffffffff\n      and\n      0xfdd58e\n        /* \"contracts/WatchTrader.sol\":809:819  msg.sender */\n      caller\n        /* \"contracts/WatchTrader.sol\":821:827  itemID */\n      dup6\n        /* \"contracts/WatchTrader.sol\":793:828  token.balanceOf(msg.sender, itemID) */\n      mload(0x40)\n      dup4\n      0xffffffff\n      and\n      0xe0\n      shl\n      dup2\n      mstore\n      0x04\n      add\n      tag_44\n      swap3\n      swap2\n      swap1\n      tag_45\n      jump\t// in\n    tag_44:\n      0x20\n      mload(0x40)\n      dup1\n      dup4\n      sub\n      dup2\n      dup7\n      dup1\n      extcodesize\n      iszero\n      dup1\n      iszero\n      tag_46\n      jumpi\n      0x00\n      dup1\n      revert\n    tag_46:\n      pop\n      gas\n      staticcall\n      iszero\n      dup1\n      iszero\n      tag_48\n      jumpi\n      returndatasize\n      0x00\n      dup1\n      returndatacopy\n      revert(0x00, returndatasize)\n    tag_48:\n      pop\n      pop\n      pop\n      pop\n      mload(0x40)\n      returndatasize\n      not(0x1f)\n      0x1f\n      dup3\n      add\n      and\n      dup3\n      add\n      dup1\n      0x40\n      mstore\n      pop\n      dup2\n      add\n      swap1\n      tag_49\n      swap2\n      swap1\n      tag_50\n      jump\t// in\n    tag_49:\n        /* \"contracts/WatchTrader.sol\":793:832  token.balanceOf(msg.sender, itemID) > 0 */\n      gt\n        /* \"contracts/WatchTrader.sol\":785:874  require(token.balanceOf(msg.sender, itemID) > 0, \"Must own token to be able to list it.\") */\n      tag_51\n      jumpi\n      mload(0x40)\n      0x08c379a000000000000000000000000000000000000000000000000000000000\n      dup2\n      mstore\n      0x04\n      add\n      tag_52\n      swap1\n      tag_53\n      jump\t// in\n    tag_52:\n      mload(0x40)\n      dup1\n      swap2\n      sub\n      swap1\n      revert\n    tag_51:\n        /* \"contracts/WatchTrader.sol\":892:897  token */\n      dup1\n        /* \"contracts/WatchTrader.sol\":892:914  token.isApprovedForAll */\n      0xffffffffffffffffffffffffffffffffffffffff\n      and\n      0xe985e9c5\n        /* \"contracts/WatchTrader.sol\":915:925  msg.sender */\n      caller\n        /* \"contracts/WatchTrader.sol\":935:939  this */\n      address\n        /* \"contracts/WatchTrader.sol\":892:941  token.isApprovedForAll(msg.sender, address(this)) */\n      mload(0x40)\n      dup4\n      0xffffffff\n      and\n      0xe0\n      shl\n      dup2\n      mstore\n      0x04\n      add\n      tag_54\n      swap3\n      swap2\n      swap1\n      tag_55\n      jump\t// in\n    tag_54:\n      0x20\n      mload(0x40)\n      dup1\n      dup4\n      sub\n      dup2\n      dup7\n      dup1\n      extcodesize\n      iszero\n      dup1\n      iszero\n      tag_56\n      jumpi\n      0x00\n      dup1\n      revert\n    tag_56:\n      pop\n      gas\n      staticcall\n      iszero\n      dup1\n      iszero\n      tag_58\n      jumpi\n      returndatasize\n      0x00\n      dup1\n      returndatacopy\n      revert(0x00, returndatasize)\n    tag_58:\n      pop\n      pop\n      pop\n      pop\n      mload(0x40)\n      returndatasize\n      not(0x1f)\n      0x1f\n      dup3\n      add\n      and\n      dup3\n      add\n      dup1\n      0x40\n      mstore\n      pop\n      dup2\n      add\n      swap1\n      tag_59\n      swap2\n      swap1\n      tag_60\n      jump\t// in\n    tag_59:\n        /* \"contracts/WatchTrader.sol\":884:972  require(token.isApprovedForAll(msg.sender, address(this)), \"Contract must be approved.\") */\n      tag_61\n      jumpi\n      mload(0x40)\n      0x08c379a000000000000000000000000000000000000000000000000000000000\n      dup2\n      mstore\n      0x04\n      add\n      tag_62\n      swap1\n      tag_63\n      jump\t// in\n    tag_62:\n      mload(0x40)\n      dup1\n      swap2\n      sub\n      swap1\n      revert\n    tag_61:\n        /* \"contracts/WatchTrader.sol\":1023:1049  Listing(price, msg.sender) */\n      mload(0x40)\n      dup1\n      0x40\n      add\n      0x40\n      mstore\n      dup1\n        /* \"contracts/WatchTrader.sol\":1031:1036  price */\n      dup6\n        /* \"contracts/WatchTrader.sol\":1023:1049  Listing(price, msg.sender) */\n      dup2\n      mstore\n      0x20\n      add\n        /* \"contracts/WatchTrader.sol\":1038:1048  msg.sender */\n      caller\n        /* \"contracts/WatchTrader.sol\":1023:1049  Listing(price, msg.sender) */\n      0xffffffffffffffffffffffffffffffffffffffff\n      and\n      dup2\n      mstore\n      pop\n        /* \"contracts/WatchTrader.sol\":983:991  listings */\n      0x00\n        /* \"contracts/WatchTrader.sol\":983:1012  listings[itemContractAddress] */\n      dup1\n        /* \"contracts/WatchTrader.sol\":992:1011  itemContractAddress */\n      dup6\n        /* \"contracts/WatchTrader.sol\":983:1012  listings[itemContractAddress] */\n      0xffffffffffffffffffffffffffffffffffffffff\n      and\n      0xffffffffffffffffffffffffffffffffffffffff\n      and\n      dup2\n      mstore\n      0x20\n      add\n      swap1\n      dup2\n      mstore\n      0x20\n      add\n      0x00\n      keccak256\n        /* \"contracts/WatchTrader.sol\":983:1020  listings[itemContractAddress][itemID] */\n      0x00\n        /* \"contracts/WatchTrader.sol\":1013:1019  itemID */\n      dup5\n        /* \"contracts/WatchTrader.sol\":983:1020  listings[itemContractAddress][itemID] */\n      dup2\n      mstore\n      0x20\n      add\n      swap1\n      dup2\n      mstore\n      0x20\n      add\n      0x00\n      keccak256\n        /* \"contracts/WatchTrader.sol\":983:1049  listings[itemContractAddress][itemID] = Listing(price, msg.sender) */\n      0x00\n      dup3\n      add\n      mload\n      dup2\n      0x00\n      add\n      sstore\n      0x20\n      dup3\n      add\n      mload\n      dup2\n      0x01\n      add\n      exp(0x0100, 0x00)\n      dup2\n      sload\n      dup2\n      0xffffffffffffffffffffffffffffffffffffffff\n      mul\n      not\n      and\n      swap1\n      dup4\n      0xffffffffffffffffffffffffffffffffffffffff\n      and\n      mul\n      or\n      swap1\n      sstore\n      pop\n      swap1\n      pop\n      pop\n        /* \"contracts/WatchTrader.sol\":721:1057  {... */\n      pop\n        /* \"contracts/WatchTrader.sol\":635:1057  function addListing(uint256 price, address itemContractAddress, uint256 itemID) public{... */\n      pop\n      pop\n      pop\n      jump\t// out\n        /* \"contracts/WatchTrader.sol\":1268:1712  function purchase(address itemContractAddress, uint256 itemID, uint256 amount) public payable {... */\n    tag_34:\n        /* \"contracts/WatchTrader.sol\":1372:1385  ERC1155 token */\n      0x00\n        /* \"contracts/WatchTrader.sol\":1396:1415  itemContractAddress */\n      dup4\n        /* \"contracts/WatchTrader.sol\":1372:1416  ERC1155 token = ERC1155(itemContractAddress) */\n      swap1\n      pop\n        /* \"contracts/WatchTrader.sol\":1426:1445  Listing memory item */\n      0x00\n        /* \"contracts/WatchTrader.sol\":1448:1456  listings */\n      dup1\n        /* \"contracts/WatchTrader.sol\":1448:1477  listings[itemContractAddress] */\n      0x00\n        /* \"contracts/WatchTrader.sol\":1457:1476  itemContractAddress */\n      dup7\n        /* \"contracts/WatchTrader.sol\":1448:1477  listings[itemContractAddress] */\n      0xffffffffffffffffffffffffffffffffffffffff\n      and\n      0xffffffffffffffffffffffffffffffffffffffff\n      and\n      dup2\n      mstore\n      0x20\n      add\n      swap1\n      dup2\n      mstore\n      0x20\n      add\n      0x00\n      keccak256\n        /* \"contracts/WatchTrader.sol\":1448:1485  listings[itemContractAddress][itemID] */\n      0x00\n        /* \"contracts/WatchTrader.sol\":1478:1484  itemID */\n      dup6\n        /* \"contracts/WatchTrader.sol\":1448:1485  listings[itemContractAddress][itemID] */\n      dup2\n      mstore\n      0x20\n      add\n      swap1\n      dup2\n      mstore\n      0x20\n      add\n      0x00\n      keccak256\n        /* \"contracts/WatchTrader.sol\":1426:1485  Listing memory item = listings[itemContractAddress][itemID] */\n      mload(0x40)\n      dup1\n      0x40\n      add\n      0x40\n      mstore\n      swap1\n      dup2\n      0x00\n      dup3\n      add\n      sload\n      dup2\n      mstore\n      0x20\n      add\n      0x01\n      dup3\n      add\n      0x00\n      swap1\n      sload\n      swap1\n      0x0100\n      exp\n      swap1\n      div\n      0xffffffffffffffffffffffffffffffffffffffff\n      and\n      0xffffffffffffffffffffffffffffffffffffffff\n      and\n      0xffffffffffffffffffffffffffffffffffffffff\n      and\n      dup2\n      mstore\n      pop\n      pop\n      swap1\n      pop\n        /* \"contracts/WatchTrader.sol\":1530:1536  amount */\n      dup3\n        /* \"contracts/WatchTrader.sol\":1517:1521  item */\n      dup2\n        /* \"contracts/WatchTrader.sol\":1517:1527  item.price */\n      0x00\n      add\n      mload\n        /* \"contracts/WatchTrader.sol\":1517:1536  item.price * amount */\n      tag_65\n      swap2\n      swap1\n      tag_66\n      jump\t// in\n    tag_65:\n        /* \"contracts/WatchTrader.sol\":1504:1513  msg.value */\n      callvalue\n        /* \"contracts/WatchTrader.sol\":1504:1536  msg.value >= item.price * amount */\n      lt\n      iszero\n        /* \"contracts/WatchTrader.sol\":1496:1576  require(msg.value >= item.price * amount, \"Insufficient amount sent to seller.\") */\n      tag_67\n      jumpi\n      mload(0x40)\n      0x08c379a000000000000000000000000000000000000000000000000000000000\n      dup2\n      mstore\n      0x04\n      add\n      tag_68\n      swap1\n      tag_69\n      jump\t// in\n    tag_68:\n      mload(0x40)\n      dup1\n      swap2\n      sub\n      swap1\n      revert\n    tag_67:\n        /* \"contracts/WatchTrader.sol\":1611:1620  msg.value */\n      callvalue\n        /* \"contracts/WatchTrader.sol\":1586:1594  balances */\n      0x01\n        /* \"contracts/WatchTrader.sol\":1586:1607  balances[item.seller] */\n      0x00\n        /* \"contracts/WatchTrader.sol\":1595:1599  item */\n      dup4\n        /* \"contracts/WatchTrader.sol\":1595:1606  item.seller */\n      0x20\n      add\n      mload\n        /* \"contracts/WatchTrader.sol\":1586:1607  balances[item.seller] */\n      0xffffffffffffffffffffffffffffffffffffffff\n      and\n      0xffffffffffffffffffffffffffffffffffffffff\n      and\n      dup2\n      mstore\n      0x20\n      add\n      swap1\n      dup2\n      mstore\n      0x20\n      add\n      0x00\n      keccak256\n      0x00\n        /* \"contracts/WatchTrader.sol\":1586:1620  balances[item.seller] += msg.value */\n      dup3\n      dup3\n      sload\n      tag_70\n      swap2\n      swap1\n      tag_71\n      jump\t// in\n    tag_70:\n      swap3\n      pop\n      pop\n      dup2\n      swap1\n      sstore\n      pop\n        /* \"contracts/WatchTrader.sol\":1630:1635  token */\n      dup2\n        /* \"contracts/WatchTrader.sol\":1630:1652  token.safeTransferFrom */\n      0xffffffffffffffffffffffffffffffffffffffff\n      and\n      0xf242432a\n        /* \"contracts/WatchTrader.sol\":1653:1657  item */\n      dup3\n        /* \"contracts/WatchTrader.sol\":1653:1664  item.seller */\n      0x20\n      add\n      mload\n        /* \"contracts/WatchTrader.sol\":1666:1676  msg.sender */\n      caller\n        /* \"contracts/WatchTrader.sol\":1678:1684  itemID */\n      dup8\n        /* \"contracts/WatchTrader.sol\":1686:1692  amount */\n      dup8\n        /* \"contracts/WatchTrader.sol\":1630:1705  token.safeTransferFrom(item.seller, msg.sender, itemID, amount, \"Transfer\") */\n      mload(0x40)\n      dup6\n      0xffffffff\n      and\n      0xe0\n      shl\n      dup2\n      mstore\n      0x04\n      add\n      tag_72\n      swap5\n      swap4\n      swap3\n      swap2\n      swap1\n      tag_73\n      jump\t// in\n    tag_72:\n      0x00\n      mload(0x40)\n      dup1\n      dup4\n      sub\n      dup2\n      0x00\n      dup8\n      dup1\n      extcodesize\n      iszero\n      dup1\n      iszero\n      tag_74\n      jumpi\n      0x00\n      dup1\n      revert\n    tag_74:\n      pop\n      gas\n      call\n      iszero\n      dup1\n      iszero\n      tag_76\n      jumpi\n      returndatasize\n      0x00\n      dup1\n      returndatacopy\n      revert(0x00, returndatasize)\n    tag_76:\n      pop\n      pop\n      pop\n      pop\n        /* \"contracts/WatchTrader.sol\":1362:1712  {... */\n      pop\n      pop\n        /* \"contracts/WatchTrader.sol\":1268:1712  function purchase(address itemContractAddress, uint256 itemID, uint256 amount) public payable {... */\n      pop\n      pop\n      pop\n      jump\t// out\n        /* \"#utility.yul\":7:146   */\n    tag_78:\n        /* \"#utility.yul\":53:58   */\n      0x00\n        /* \"#utility.yul\":91:97   */\n      dup2\n        /* \"#utility.yul\":78:98   */\n      calldataload\n        /* \"#utility.yul\":69:98   */\n      swap1\n      pop\n        /* \"#utility.yul\":107:140   */\n      tag_80\n        /* \"#utility.yul\":134:139   */\n      dup2\n        /* \"#utility.yul\":107:140   */\n      tag_81\n      jump\t// in\n    tag_80:\n        /* \"#utility.yul\":7:146   */\n      swap3\n      swap2\n      pop\n      pop\n      jump\t// out\n        /* \"#utility.yul\":152:307   */\n    tag_82:\n        /* \"#utility.yul\":206:211   */\n      0x00\n        /* \"#utility.yul\":244:250   */\n      dup2\n        /* \"#utility.yul\":231:251   */\n      calldataload\n        /* \"#utility.yul\":222:251   */\n      swap1\n      pop\n        /* \"#utility.yul\":260:301   */\n      tag_84\n        /* \"#utility.yul\":295:300   */\n      dup2\n        /* \"#utility.yul\":260:301   */\n      tag_85\n      jump\t// in\n    tag_84:\n        /* \"#utility.yul\":152:307   */\n      swap3\n      swap2\n      pop\n      pop\n      jump\t// out\n        /* \"#utility.yul\":313:450   */\n    tag_86:\n        /* \"#utility.yul\":367:372   */\n      0x00\n        /* \"#utility.yul\":398:404   */\n      dup2\n        /* \"#utility.yul\":392:405   */\n      mload\n        /* \"#utility.yul\":383:405   */\n      swap1\n      pop\n        /* \"#utility.yul\":414:444   */\n      tag_88\n        /* \"#utility.yul\":438:443   */\n      dup2\n        /* \"#utility.yul\":414:444   */\n      tag_89\n      jump\t// in\n    tag_88:\n        /* \"#utility.yul\":313:450   */\n      swap3\n      swap2\n      pop\n      pop\n      jump\t// out\n        /* \"#utility.yul\":456:595   */\n    tag_90:\n        /* \"#utility.yul\":502:507   */\n      0x00\n        /* \"#utility.yul\":540:546   */\n      dup2\n        /* \"#utility.yul\":527:547   */\n      calldataload\n        /* \"#utility.yul\":518:547   */\n      swap1\n      pop\n        /* \"#utility.yul\":556:589   */\n      tag_92\n        /* \"#utility.yul\":583:588   */\n      dup2\n        /* \"#utility.yul\":556:589   */\n      tag_93\n      jump\t// in\n    tag_92:\n        /* \"#utility.yul\":456:595   */\n      swap3\n      swap2\n      pop\n      pop\n      jump\t// out\n        /* \"#utility.yul\":601:744   */\n    tag_94:\n        /* \"#utility.yul\":658:663   */\n      0x00\n        /* \"#utility.yul\":689:695   */\n      dup2\n        /* \"#utility.yul\":683:696   */\n      mload\n        /* \"#utility.yul\":674:696   */\n      swap1\n      pop\n        /* \"#utility.yul\":705:738   */\n      tag_96\n        /* \"#utility.yul\":732:737   */\n      dup2\n        /* \"#utility.yul\":705:738   */\n      tag_93\n      jump\t// in\n    tag_96:\n        /* \"#utility.yul\":601:744   */\n      swap3\n      swap2\n      pop\n      pop\n      jump\t// out\n        /* \"#utility.yul\":750:1079   */\n    tag_22:\n        /* \"#utility.yul\":809:815   */\n      0x00\n        /* \"#utility.yul\":858:860   */\n      0x20\n        /* \"#utility.yul\":846:855   */\n      dup3\n        /* \"#utility.yul\":837:844   */\n      dup5\n        /* \"#utility.yul\":833:856   */\n      sub\n        /* \"#utility.yul\":829:861   */\n      slt\n        /* \"#utility.yul\":826:945   */\n      iszero\n      tag_98\n      jumpi\n        /* \"#utility.yul\":864:943   */\n      tag_99\n      tag_100\n      jump\t// in\n    tag_99:\n        /* \"#utility.yul\":826:945   */\n    tag_98:\n        /* \"#utility.yul\":984:985   */\n      0x00\n        /* \"#utility.yul\":1009:1062   */\n      tag_101\n        /* \"#utility.yul\":1054:1061   */\n      dup5\n        /* \"#utility.yul\":1045:1051   */\n      dup3\n        /* \"#utility.yul\":1034:1043   */\n      dup6\n        /* \"#utility.yul\":1030:1052   */\n      add\n        /* \"#utility.yul\":1009:1062   */\n      tag_78\n      jump\t// in\n    tag_101:\n        /* \"#utility.yul\":999:1062   */\n      swap2\n      pop\n        /* \"#utility.yul\":955:1072   */\n      pop\n        /* \"#utility.yul\":750:1079   */\n      swap3\n      swap2\n      pop\n      pop\n      jump\t// out\n        /* \"#utility.yul\":1085:1559   */\n    tag_10:\n        /* \"#utility.yul\":1153:1159   */\n      0x00\n        /* \"#utility.yul\":1161:1167   */\n      dup1\n        /* \"#utility.yul\":1210:1212   */\n      0x40\n        /* \"#utility.yul\":1198:1207   */\n      dup4\n        /* \"#utility.yul\":1189:1196   */\n      dup6\n        /* \"#utility.yul\":1185:1208   */\n      sub\n        /* \"#utility.yul\":1181:1213   */\n      slt\n        /* \"#utility.yul\":1178:1297   */\n      iszero\n      tag_103\n      jumpi\n        /* \"#utility.yul\":1216:1295   */\n      tag_104\n      tag_100\n      jump\t// in\n    tag_104:\n        /* \"#utility.yul\":1178:1297   */\n    tag_103:\n        /* \"#utility.yul\":1336:1337   */\n      0x00\n        /* \"#utility.yul\":1361:1414   */\n      tag_105\n        /* \"#utility.yul\":1406:1413   */\n      dup6\n        /* \"#utility.yul\":1397:1403   */\n      dup3\n        /* \"#utility.yul\":1386:1395   */\n      dup7\n        /* \"#utility.yul\":1382:1404   */\n      add\n        /* \"#utility.yul\":1361:1414   */\n      tag_78\n      jump\t// in\n    tag_105:\n        /* \"#utility.yul\":1351:1414   */\n      swap3\n      pop\n        /* \"#utility.yul\":1307:1424   */\n      pop\n        /* \"#utility.yul\":1463:1465   */\n      0x20\n        /* \"#utility.yul\":1489:1542   */\n      tag_106\n        /* \"#utility.yul\":1534:1541   */\n      dup6\n        /* \"#utility.yul\":1525:1531   */\n      dup3\n        /* \"#utility.yul\":1514:1523   */\n      dup7\n        /* \"#utility.yul\":1510:1532   */\n      add\n        /* \"#utility.yul\":1489:1542   */\n      tag_90\n      jump\t// in\n    tag_106:\n        /* \"#utility.yul\":1479:1542   */\n      swap2\n      pop\n        /* \"#utility.yul\":1434:1552   */\n      pop\n        /* \"#utility.yul\":1085:1559   */\n      swap3\n      pop\n      swap3\n      swap1\n      pop\n      jump\t// out\n        /* \"#utility.yul\":1565:2184   */\n    tag_33:\n        /* \"#utility.yul\":1642:1648   */\n      0x00\n        /* \"#utility.yul\":1650:1656   */\n      dup1\n        /* \"#utility.yul\":1658:1664   */\n      0x00\n        /* \"#utility.yul\":1707:1709   */\n      0x60\n        /* \"#utility.yul\":1695:1704   */\n      dup5\n        /* \"#utility.yul\":1686:1693   */\n      dup7\n        /* \"#utility.yul\":1682:1705   */\n      sub\n        /* \"#utility.yul\":1678:1710   */\n      slt\n        /* \"#utility.yul\":1675:1794   */\n      iszero\n      tag_108\n      jumpi\n        /* \"#utility.yul\":1713:1792   */\n      tag_109\n      tag_100\n      jump\t// in\n    tag_109:\n        /* \"#utility.yul\":1675:1794   */\n    tag_108:\n        /* \"#utility.yul\":1833:1834   */\n      0x00\n        /* \"#utility.yul\":1858:1911   */\n      tag_110\n        /* \"#utility.yul\":1903:1910   */\n      dup7\n        /* \"#utility.yul\":1894:1900   */\n      dup3\n        /* \"#utility.yul\":1883:1892   */\n      dup8\n        /* \"#utility.yul\":1879:1901   */\n      add\n        /* \"#utility.yul\":1858:1911   */\n      tag_78\n      jump\t// in\n    tag_110:\n        /* \"#utility.yul\":1848:1911   */\n      swap4\n      pop\n        /* \"#utility.yul\":1804:1921   */\n      pop\n        /* \"#utility.yul\":1960:1962   */\n      0x20\n        /* \"#utility.yul\":1986:2039   */\n      tag_111\n        /* \"#utility.yul\":2031:2038   */\n      dup7\n        /* \"#utility.yul\":2022:2028   */\n      dup3\n        /* \"#utility.yul\":2011:2020   */\n      dup8\n        /* \"#utility.yul\":2007:2029   */\n      add\n        /* \"#utility.yul\":1986:2039   */\n      tag_90\n      jump\t// in\n    tag_111:\n        /* \"#utility.yul\":1976:2039   */\n      swap3\n      pop\n        /* \"#utility.yul\":1931:2049   */\n      pop\n        /* \"#utility.yul\":2088:2090   */\n      0x40\n        /* \"#utility.yul\":2114:2167   */\n      tag_112\n        /* \"#utility.yul\":2159:2166   */\n      dup7\n        /* \"#utility.yul\":2150:2156   */\n      dup3\n        /* \"#utility.yul\":2139:2148   */\n      dup8\n        /* \"#utility.yul\":2135:2157   */\n      add\n        /* \"#utility.yul\":2114:2167   */\n      tag_90\n      jump\t// in\n    tag_112:\n        /* \"#utility.yul\":2104:2167   */\n      swap2\n      pop\n        /* \"#utility.yul\":2059:2177   */\n      pop\n        /* \"#utility.yul\":1565:2184   */\n      swap3\n      pop\n      swap3\n      pop\n      swap3\n      jump\t// out\n        /* \"#utility.yul\":2190:2535   */\n    tag_60:\n        /* \"#utility.yul\":2257:2263   */\n      0x00\n        /* \"#utility.yul\":2306:2308   */\n      0x20\n        /* \"#utility.yul\":2294:2303   */\n      dup3\n        /* \"#utility.yul\":2285:2292   */\n      dup5\n        /* \"#utility.yul\":2281:2304   */\n      sub\n        /* \"#utility.yul\":2277:2309   */\n      slt\n        /* \"#utility.yul\":2274:2393   */\n      iszero\n      tag_114\n      jumpi\n        /* \"#utility.yul\":2312:2391   */\n      tag_115\n      tag_100\n      jump\t// in\n    tag_115:\n        /* \"#utility.yul\":2274:2393   */\n    tag_114:\n        /* \"#utility.yul\":2432:2433   */\n      0x00\n        /* \"#utility.yul\":2457:2518   */\n      tag_116\n        /* \"#utility.yul\":2510:2517   */\n      dup5\n        /* \"#utility.yul\":2501:2507   */\n      dup3\n        /* \"#utility.yul\":2490:2499   */\n      dup6\n        /* \"#utility.yul\":2486:2508   */\n      add\n        /* \"#utility.yul\":2457:2518   */\n      tag_86\n      jump\t// in\n    tag_116:\n        /* \"#utility.yul\":2447:2518   */\n      swap2\n      pop\n        /* \"#utility.yul\":2403:2528   */\n      pop\n        /* \"#utility.yul\":2190:2535   */\n      swap3\n      swap2\n      pop\n      pop\n      jump\t// out\n        /* \"#utility.yul\":2541:2892   */\n    tag_50:\n        /* \"#utility.yul\":2611:2617   */\n      0x00\n        /* \"#utility.yul\":2660:2662   */\n      0x20\n        /* \"#utility.yul\":2648:2657   */\n      dup3\n        /* \"#utility.yul\":2639:2646   */\n      dup5\n        /* \"#utility.yul\":2635:2658   */\n      sub\n        /* \"#utility.yul\":2631:2663   */\n      slt\n        /* \"#utility.yul\":2628:2747   */\n      iszero\n      tag_118\n      jumpi\n        /* \"#utility.yul\":2666:2745   */\n      tag_119\n      tag_100\n      jump\t// in\n    tag_119:\n        /* \"#utility.yul\":2628:2747   */\n    tag_118:\n        /* \"#utility.yul\":2786:2787   */\n      0x00\n        /* \"#utility.yul\":2811:2875   */\n      tag_120\n        /* \"#utility.yul\":2867:2874   */\n      dup5\n        /* \"#utility.yul\":2858:2864   */\n      dup3\n        /* \"#utility.yul\":2847:2856   */\n      dup6\n        /* \"#utility.yul\":2843:2865   */\n      add\n        /* \"#utility.yul\":2811:2875   */\n      tag_94\n      jump\t// in\n    tag_120:\n        /* \"#utility.yul\":2801:2875   */\n      swap2\n      pop\n        /* \"#utility.yul\":2757:2885   */\n      pop\n        /* \"#utility.yul\":2541:2892   */\n      swap3\n      swap2\n      pop\n      pop\n      jump\t// out\n        /* \"#utility.yul\":2898:3388   */\n    tag_17:\n        /* \"#utility.yul\":2974:2980   */\n      0x00\n        /* \"#utility.yul\":2982:2988   */\n      dup1\n        /* \"#utility.yul\":3031:3033   */\n      0x40\n        /* \"#utility.yul\":3019:3028   */\n      dup4\n        /* \"#utility.yul\":3010:3017   */\n      dup6\n        /* \"#utility.yul\":3006:3029   */\n      sub\n        /* \"#utility.yul\":3002:3034   */\n      slt\n        /* \"#utility.yul\":2999:3118   */\n      iszero\n      tag_122\n      jumpi\n        /* \"#utility.yul\":3037:3116   */\n      tag_123\n      tag_100\n      jump\t// in\n    tag_123:\n        /* \"#utility.yul\":2999:3118   */\n    tag_122:\n        /* \"#utility.yul\":3157:3158   */\n      0x00\n        /* \"#utility.yul\":3182:3235   */\n      tag_124\n        /* \"#utility.yul\":3227:3234   */\n      dup6\n        /* \"#utility.yul\":3218:3224   */\n      dup3\n        /* \"#utility.yul\":3207:3216   */\n      dup7\n        /* \"#utility.yul\":3203:3225   */\n      add\n        /* \"#utility.yul\":3182:3235   */\n      tag_90\n      jump\t// in\n    tag_124:\n        /* \"#utility.yul\":3172:3235   */\n      swap3\n      pop\n        /* \"#utility.yul\":3128:3245   */\n      pop\n        /* \"#utility.yul\":3284:3286   */\n      0x20\n        /* \"#utility.yul\":3310:3371   */\n      tag_125\n        /* \"#utility.yul\":3363:3370   */\n      dup6\n        /* \"#utility.yul\":3354:3360   */\n      dup3\n        /* \"#utility.yul\":3343:3352   */\n      dup7\n        /* \"#utility.yul\":3339:3361   */\n      add\n        /* \"#utility.yul\":3310:3371   */\n      tag_82\n      jump\t// in\n    tag_125:\n        /* \"#utility.yul\":3300:3371   */\n      swap2\n      pop\n        /* \"#utility.yul\":3255:3381   */\n      pop\n        /* \"#utility.yul\":2898:3388   */\n      swap3\n      pop\n      swap3\n      swap1\n      pop\n      jump\t// out\n        /* \"#utility.yul\":3394:4013   */\n    tag_29:\n        /* \"#utility.yul\":3471:3477   */\n      0x00\n        /* \"#utility.yul\":3479:3485   */\n      dup1\n        /* \"#utility.yul\":3487:3493   */\n      0x00\n        /* \"#utility.yul\":3536:3538   */\n      0x60\n        /* \"#utility.yul\":3524:3533   */\n      dup5\n        /* \"#utility.yul\":3515:3522   */\n      dup7\n        /* \"#utility.yul\":3511:3534   */\n      sub\n        /* \"#utility.yul\":3507:3539   */\n      slt\n        /* \"#utility.yul\":3504:3623   */\n      iszero\n      tag_127\n      jumpi\n        /* \"#utility.yul\":3542:3621   */\n      tag_128\n      tag_100\n      jump\t// in\n    tag_128:\n        /* \"#utility.yul\":3504:3623   */\n    tag_127:\n        /* \"#utility.yul\":3662:3663   */\n      0x00\n        /* \"#utility.yul\":3687:3740   */\n      tag_129\n        /* \"#utility.yul\":3732:3739   */\n      dup7\n        /* \"#utility.yul\":3723:3729   */\n      dup3\n        /* \"#utility.yul\":3712:3721   */\n      dup8\n        /* \"#utility.yul\":3708:3730   */\n      add\n        /* \"#utility.yul\":3687:3740   */\n      tag_90\n      jump\t// in\n    tag_129:\n        /* \"#utility.yul\":3677:3740   */\n      swap4\n      pop\n        /* \"#utility.yul\":3633:3750   */\n      pop\n        /* \"#utility.yul\":3789:3791   */\n      0x20\n        /* \"#utility.yul\":3815:3868   */\n      tag_130\n        /* \"#utility.yul\":3860:3867   */\n      dup7\n        /* \"#utility.yul\":3851:3857   */\n      dup3\n        /* \"#utility.yul\":3840:3849   */\n      dup8\n        /* \"#utility.yul\":3836:3858   */\n      add\n        /* \"#utility.yul\":3815:3868   */\n      tag_78\n      jump\t// in\n    tag_130:\n        /* \"#utility.yul\":3805:3868   */\n      swap3\n      pop\n        /* \"#utility.yul\":3760:3878   */\n      pop\n        /* \"#utility.yul\":3917:3919   */\n      0x40\n        /* \"#utility.yul\":3943:3996   */\n      tag_131\n        /* \"#utility.yul\":3988:3995   */\n      dup7\n        /* \"#utility.yul\":3979:3985   */\n      dup3\n        /* \"#utility.yul\":3968:3977   */\n      dup8\n        /* \"#utility.yul\":3964:3986   */\n      add\n        /* \"#utility.yul\":3943:3996   */\n      tag_90\n      jump\t// in\n    tag_131:\n        /* \"#utility.yul\":3933:3996   */\n      swap2\n      pop\n        /* \"#utility.yul\":3888:4006   */\n      pop\n        /* \"#utility.yul\":3394:4013   */\n      swap3\n      pop\n      swap3\n      pop\n      swap3\n      jump\t// out\n        /* \"#utility.yul\":4019:4137   */\n    tag_132:\n        /* \"#utility.yul\":4106:4130   */\n      tag_134\n        /* \"#utility.yul\":4124:4129   */\n      dup2\n        /* \"#utility.yul\":4106:4130   */\n      tag_135\n      jump\t// in\n    tag_134:\n        /* \"#utility.yul\":4101:4104   */\n      dup3\n        /* \"#utility.yul\":4094:4131   */\n      mstore\n        /* \"#utility.yul\":4019:4137   */\n      pop\n      pop\n      jump\t// out\n        /* \"#utility.yul\":4143:4509   */\n    tag_136:\n        /* \"#utility.yul\":4285:4288   */\n      0x00\n        /* \"#utility.yul\":4306:4373   */\n      tag_138\n        /* \"#utility.yul\":4370:4372   */\n      0x1a\n        /* \"#utility.yul\":4365:4368   */\n      dup4\n        /* \"#utility.yul\":4306:4373   */\n      tag_139\n      jump\t// in\n    tag_138:\n        /* \"#utility.yul\":4299:4373   */\n      swap2\n      pop\n        /* \"#utility.yul\":4382:4475   */\n      tag_140\n        /* \"#utility.yul\":4471:4474   */\n      dup3\n        /* \"#utility.yul\":4382:4475   */\n      tag_141\n      jump\t// in\n    tag_140:\n        /* \"#utility.yul\":4500:4502   */\n      0x20\n        /* \"#utility.yul\":4495:4498   */\n      dup3\n        /* \"#utility.yul\":4491:4503   */\n      add\n        /* \"#utility.yul\":4484:4503   */\n      swap1\n      pop\n        /* \"#utility.yul\":4143:4509   */\n      swap2\n      swap1\n      pop\n      jump\t// out\n        /* \"#utility.yul\":4515:4881   */\n    tag_142:\n        /* \"#utility.yul\":4657:4660   */\n      0x00\n        /* \"#utility.yul\":4678:4745   */\n      tag_144\n        /* \"#utility.yul\":4742:4744   */\n      0x23\n        /* \"#utility.yul\":4737:4740   */\n      dup4\n        /* \"#utility.yul\":4678:4745   */\n      tag_139\n      jump\t// in\n    tag_144:\n        /* \"#utility.yul\":4671:4745   */\n      swap2\n      pop\n        /* \"#utility.yul\":4754:4847   */\n      tag_145\n        /* \"#utility.yul\":4843:4846   */\n      dup3\n        /* \"#utility.yul\":4754:4847   */\n      tag_146\n      jump\t// in\n    tag_145:\n        /* \"#utility.yul\":4872:4874   */\n      0x40\n        /* \"#utility.yul\":4867:4870   */\n      dup3\n        /* \"#utility.yul\":4863:4875   */\n      add\n        /* \"#utility.yul\":4856:4875   */\n      swap1\n      pop\n        /* \"#utility.yul\":4515:4881   */\n      swap2\n      swap1\n      pop\n      jump\t// out\n        /* \"#utility.yul\":4887:5253   */\n    tag_147:\n        /* \"#utility.yul\":5029:5032   */\n      0x00\n        /* \"#utility.yul\":5050:5117   */\n      tag_149\n        /* \"#utility.yul\":5114:5116   */\n      0x25\n        /* \"#utility.yul\":5109:5112   */\n      dup4\n        /* \"#utility.yul\":5050:5117   */\n      tag_139\n      jump\t// in\n    tag_149:\n        /* \"#utility.yul\":5043:5117   */\n      swap2\n      pop\n        /* \"#utility.yul\":5126:5219   */\n      tag_150\n        /* \"#utility.yul\":5215:5218   */\n      dup3\n        /* \"#utility.yul\":5126:5219   */\n      tag_151\n      jump\t// in\n    tag_150:\n        /* \"#utility.yul\":5244:5246   */\n      0x40\n        /* \"#utility.yul\":5239:5242   */\n      dup3\n        /* \"#utility.yul\":5235:5247   */\n      add\n        /* \"#utility.yul\":5228:5247   */\n      swap1\n      pop\n        /* \"#utility.yul\":4887:5253   */\n      swap2\n      swap1\n      pop\n      jump\t// out\n        /* \"#utility.yul\":5259:5622   */\n    tag_152:\n        /* \"#utility.yul\":5400:5403   */\n      0x00\n        /* \"#utility.yul\":5421:5486   */\n      tag_154\n        /* \"#utility.yul\":5484:5485   */\n      0x08\n        /* \"#utility.yul\":5479:5482   */\n      dup4\n        /* \"#utility.yul\":5421:5486   */\n      tag_155\n      jump\t// in\n    tag_154:\n        /* \"#utility.yul\":5414:5486   */\n      swap2\n      pop\n        /* \"#utility.yul\":5495:5588   */\n      tag_156\n        /* \"#utility.yul\":5584:5587   */\n      dup3\n        /* \"#utility.yul\":5495:5588   */\n      tag_157\n      jump\t// in\n    tag_156:\n        /* \"#utility.yul\":5613:5615   */\n      0x20\n        /* \"#utility.yul\":5608:5611   */\n      dup3\n        /* \"#utility.yul\":5604:5616   */\n      add\n        /* \"#utility.yul\":5597:5616   */\n      swap1\n      pop\n        /* \"#utility.yul\":5259:5622   */\n      swap2\n      swap1\n      pop\n      jump\t// out\n        /* \"#utility.yul\":5628:5994   */\n    tag_158:\n        /* \"#utility.yul\":5770:5773   */\n      0x00\n        /* \"#utility.yul\":5791:5858   */\n      tag_160\n        /* \"#utility.yul\":5855:5857   */\n      0x13\n        /* \"#utility.yul\":5850:5853   */\n      dup4\n        /* \"#utility.yul\":5791:5858   */\n      tag_139\n      jump\t// in\n    tag_160:\n        /* \"#utility.yul\":5784:5858   */\n      swap2\n      pop\n        /* \"#utility.yul\":5867:5960   */\n      tag_161\n        /* \"#utility.yul\":5956:5959   */\n      dup3\n        /* \"#utility.yul\":5867:5960   */\n      tag_162\n      jump\t// in\n    tag_161:\n        /* \"#utility.yul\":5985:5987   */\n      0x20\n        /* \"#utility.yul\":5980:5983   */\n      dup3\n        /* \"#utility.yul\":5976:5988   */\n      add\n        /* \"#utility.yul\":5969:5988   */\n      swap1\n      pop\n        /* \"#utility.yul\":5628:5994   */\n      swap2\n      swap1\n      pop\n      jump\t// out\n        /* \"#utility.yul\":6000:6118   */\n    tag_163:\n        /* \"#utility.yul\":6087:6111   */\n      tag_165\n        /* \"#utility.yul\":6105:6110   */\n      dup2\n        /* \"#utility.yul\":6087:6111   */\n      tag_166\n      jump\t// in\n    tag_165:\n        /* \"#utility.yul\":6082:6085   */\n      dup3\n        /* \"#utility.yul\":6075:6112   */\n      mstore\n        /* \"#utility.yul\":6000:6118   */\n      pop\n      pop\n      jump\t// out\n        /* \"#utility.yul\":6124:6456   */\n    tag_55:\n        /* \"#utility.yul\":6245:6249   */\n      0x00\n        /* \"#utility.yul\":6283:6285   */\n      0x40\n        /* \"#utility.yul\":6272:6281   */\n      dup3\n        /* \"#utility.yul\":6268:6286   */\n      add\n        /* \"#utility.yul\":6260:6286   */\n      swap1\n      pop\n        /* \"#utility.yul\":6296:6367   */\n      tag_168\n        /* \"#utility.yul\":6364:6365   */\n      0x00\n        /* \"#utility.yul\":6353:6362   */\n      dup4\n        /* \"#utility.yul\":6349:6366   */\n      add\n        /* \"#utility.yul\":6340:6346   */\n      dup6\n        /* \"#utility.yul\":6296:6367   */\n      tag_132\n      jump\t// in\n    tag_168:\n        /* \"#utility.yul\":6377:6449   */\n      tag_169\n        /* \"#utility.yul\":6445:6447   */\n      0x20\n        /* \"#utility.yul\":6434:6443   */\n      dup4\n        /* \"#utility.yul\":6430:6448   */\n      add\n        /* \"#utility.yul\":6421:6427   */\n      dup5\n        /* \"#utility.yul\":6377:6449   */\n      tag_132\n      jump\t// in\n    tag_169:\n        /* \"#utility.yul\":6124:6456   */\n      swap4\n      swap3\n      pop\n      pop\n      pop\n      jump\t// out\n        /* \"#utility.yul\":6462:7321   */\n    tag_73:\n        /* \"#utility.yul\":6739:6743   */\n      0x00\n        /* \"#utility.yul\":6777:6780   */\n      0xa0\n        /* \"#utility.yul\":6766:6775   */\n      dup3\n        /* \"#utility.yul\":6762:6781   */\n      add\n        /* \"#utility.yul\":6754:6781   */\n      swap1\n      pop\n        /* \"#utility.yul\":6791:6862   */\n      tag_171\n        /* \"#utility.yul\":6859:6860   */\n      0x00\n        /* \"#utility.yul\":6848:6857   */\n      dup4\n        /* \"#utility.yul\":6844:6861   */\n      add\n        /* \"#utility.yul\":6835:6841   */\n      dup8\n        /* \"#utility.yul\":6791:6862   */\n      tag_132\n      jump\t// in\n    tag_171:\n        /* \"#utility.yul\":6872:6944   */\n      tag_172\n        /* \"#utility.yul\":6940:6942   */\n      0x20\n        /* \"#utility.yul\":6929:6938   */\n      dup4\n        /* \"#utility.yul\":6925:6943   */\n      add\n        /* \"#utility.yul\":6916:6922   */\n      dup7\n        /* \"#utility.yul\":6872:6944   */\n      tag_132\n      jump\t// in\n    tag_172:\n        /* \"#utility.yul\":6954:7026   */\n      tag_173\n        /* \"#utility.yul\":7022:7024   */\n      0x40\n        /* \"#utility.yul\":7011:7020   */\n      dup4\n        /* \"#utility.yul\":7007:7025   */\n      add\n        /* \"#utility.yul\":6998:7004   */\n      dup6\n        /* \"#utility.yul\":6954:7026   */\n      tag_163\n      jump\t// in\n    tag_173:\n        /* \"#utility.yul\":7036:7108   */\n      tag_174\n        /* \"#utility.yul\":7104:7106   */\n      0x60\n        /* \"#utility.yul\":7093:7102   */\n      dup4\n        /* \"#utility.yul\":7089:7107   */\n      add\n        /* \"#utility.yul\":7080:7086   */\n      dup5\n        /* \"#utility.yul\":7036:7108   */\n      tag_163\n      jump\t// in\n    tag_174:\n        /* \"#utility.yul\":7156:7165   */\n      dup2\n        /* \"#utility.yul\":7150:7154   */\n      dup2\n        /* \"#utility.yul\":7146:7166   */\n      sub\n        /* \"#utility.yul\":7140:7143   */\n      0x80\n        /* \"#utility.yul\":7129:7138   */\n      dup4\n        /* \"#utility.yul\":7125:7144   */\n      add\n        /* \"#utility.yul\":7118:7167   */\n      mstore\n        /* \"#utility.yul\":7184:7314   */\n      tag_175\n        /* \"#utility.yul\":7309:7313   */\n      dup2\n        /* \"#utility.yul\":7184:7314   */\n      tag_152\n      jump\t// in\n    tag_175:\n        /* \"#utility.yul\":7176:7314   */\n      swap1\n      pop\n        /* \"#utility.yul\":6462:7321   */\n      swap6\n      swap5\n      pop\n      pop\n      pop\n      pop\n      pop\n      jump\t// out\n        /* \"#utility.yul\":7327:7659   */\n    tag_45:\n        /* \"#utility.yul\":7448:7452   */\n      0x00\n        /* \"#utility.yul\":7486:7488   */\n      0x40\n        /* \"#utility.yul\":7475:7484   */\n      dup3\n        /* \"#utility.yul\":7471:7489   */\n      add\n        /* \"#utility.yul\":7463:7489   */\n      swap1\n      pop\n        /* \"#utility.yul\":7499:7570   */\n      tag_177\n        /* \"#utility.yul\":7567:7568   */\n      0x00\n        /* \"#utility.yul\":7556:7565   */\n      dup4\n        /* \"#utility.yul\":7552:7569   */\n      add\n        /* \"#utility.yul\":7543:7549   */\n      dup6\n        /* \"#utility.yul\":7499:7570   */\n      tag_132\n      jump\t// in\n    tag_177:\n        /* \"#utility.yul\":7580:7652   */\n      tag_178\n        /* \"#utility.yul\":7648:7650   */\n      0x20\n        /* \"#utility.yul\":7637:7646   */\n      dup4\n        /* \"#utility.yul\":7633:7651   */\n      add\n        /* \"#utility.yul\":7624:7630   */\n      dup5\n        /* \"#utility.yul\":7580:7652   */\n      tag_163\n      jump\t// in\n    tag_178:\n        /* \"#utility.yul\":7327:7659   */\n      swap4\n      swap3\n      pop\n      pop\n      pop\n      jump\t// out\n        /* \"#utility.yul\":7665:8084   */\n    tag_63:\n        /* \"#utility.yul\":7831:7835   */\n      0x00\n        /* \"#utility.yul\":7869:7871   */\n      0x20\n        /* \"#utility.yul\":7858:7867   */\n      dup3\n        /* \"#utility.yul\":7854:7872   */\n      add\n        /* \"#utility.yul\":7846:7872   */\n      swap1\n      pop\n        /* \"#utility.yul\":7918:7927   */\n      dup2\n        /* \"#utility.yul\":7912:7916   */\n      dup2\n        /* \"#utility.yul\":7908:7928   */\n      sub\n        /* \"#utility.yul\":7904:7905   */\n      0x00\n        /* \"#utility.yul\":7893:7902   */\n      dup4\n        /* \"#utility.yul\":7889:7906   */\n      add\n        /* \"#utility.yul\":7882:7929   */\n      mstore\n        /* \"#utility.yul\":7946:8077   */\n      tag_180\n        /* \"#utility.yul\":8072:8076   */\n      dup2\n        /* \"#utility.yul\":7946:8077   */\n      tag_136\n      jump\t// in\n    tag_180:\n        /* \"#utility.yul\":7938:8077   */\n      swap1\n      pop\n        /* \"#utility.yul\":7665:8084   */\n      swap2\n      swap1\n      pop\n      jump\t// out\n        /* \"#utility.yul\":8090:8509   */\n    tag_69:\n        /* \"#utility.yul\":8256:8260   */\n      0x00\n        /* \"#utility.yul\":8294:8296   */\n      0x20\n        /* \"#utility.yul\":8283:8292   */\n      dup3\n        /* \"#utility.yul\":8279:8297   */\n      add\n        /* \"#utility.yul\":8271:8297   */\n      swap1\n      pop\n        /* \"#utility.yul\":8343:8352   */\n      dup2\n        /* \"#utility.yul\":8337:8341   */\n      dup2\n        /* \"#utility.yul\":8333:8353   */\n      sub\n        /* \"#utility.yul\":8329:8330   */\n      0x00\n        /* \"#utility.yul\":8318:8327   */\n      dup4\n        /* \"#utility.yul\":8314:8331   */\n      add\n        /* \"#utility.yul\":8307:8354   */\n      mstore\n        /* \"#utility.yul\":8371:8502   */\n      tag_182\n        /* \"#utility.yul\":8497:8501   */\n      dup2\n        /* \"#utility.yul\":8371:8502   */\n      tag_142\n      jump\t// in\n    tag_182:\n        /* \"#utility.yul\":8363:8502   */\n      swap1\n      pop\n        /* \"#utility.yul\":8090:8509   */\n      swap2\n      swap1\n      pop\n      jump\t// out\n        /* \"#utility.yul\":8515:8934   */\n    tag_53:\n        /* \"#utility.yul\":8681:8685   */\n      0x00\n        /* \"#utility.yul\":8719:8721   */\n      0x20\n        /* \"#utility.yul\":8708:8717   */\n      dup3\n        /* \"#utility.yul\":8704:8722   */\n      add\n        /* \"#utility.yul\":8696:8722   */\n      swap1\n      pop\n        /* \"#utility.yul\":8768:8777   */\n      dup2\n        /* \"#utility.yul\":8762:8766   */\n      dup2\n        /* \"#utility.yul\":8758:8778   */\n      sub\n        /* \"#utility.yul\":8754:8755   */\n      0x00\n        /* \"#utility.yul\":8743:8752   */\n      dup4\n        /* \"#utility.yul\":8739:8756   */\n      add\n        /* \"#utility.yul\":8732:8779   */\n      mstore\n        /* \"#utility.yul\":8796:8927   */\n      tag_184\n        /* \"#utility.yul\":8922:8926   */\n      dup2\n        /* \"#utility.yul\":8796:8927   */\n      tag_147\n      jump\t// in\n    tag_184:\n        /* \"#utility.yul\":8788:8927   */\n      swap1\n      pop\n        /* \"#utility.yul\":8515:8934   */\n      swap2\n      swap1\n      pop\n      jump\t// out\n        /* \"#utility.yul\":8940:9359   */\n    tag_38:\n        /* \"#utility.yul\":9106:9110   */\n      0x00\n        /* \"#utility.yul\":9144:9146   */\n      0x20\n        /* \"#utility.yul\":9133:9142   */\n      dup3\n        /* \"#utility.yul\":9129:9147   */\n      add\n        /* \"#utility.yul\":9121:9147   */\n      swap1\n      pop\n        /* \"#utility.yul\":9193:9202   */\n      dup2\n        /* \"#utility.yul\":9187:9191   */\n      dup2\n        /* \"#utility.yul\":9183:9203   */\n      sub\n        /* \"#utility.yul\":9179:9180   */\n      0x00\n        /* \"#utility.yul\":9168:9177   */\n      dup4\n        /* \"#utility.yul\":9164:9181   */\n      add\n        /* \"#utility.yul\":9157:9204   */\n      mstore\n        /* \"#utility.yul\":9221:9352   */\n      tag_186\n        /* \"#utility.yul\":9347:9351   */\n      dup2\n        /* \"#utility.yul\":9221:9352   */\n      tag_158\n      jump\t// in\n    tag_186:\n        /* \"#utility.yul\":9213:9352   */\n      swap1\n      pop\n        /* \"#utility.yul\":8940:9359   */\n      swap2\n      swap1\n      pop\n      jump\t// out\n        /* \"#utility.yul\":9365:9587   */\n    tag_25:\n        /* \"#utility.yul\":9458:9462   */\n      0x00\n        /* \"#utility.yul\":9496:9498   */\n      0x20\n        /* \"#utility.yul\":9485:9494   */\n      dup3\n        /* \"#utility.yul\":9481:9499   */\n      add\n        /* \"#utility.yul\":9473:9499   */\n      swap1\n      pop\n        /* \"#utility.yul\":9509:9580   */\n      tag_188\n        /* \"#utility.yul\":9577:9578   */\n      0x00\n        /* \"#utility.yul\":9566:9575   */\n      dup4\n        /* \"#utility.yul\":9562:9579   */\n      add\n        /* \"#utility.yul\":9553:9559   */\n      dup5\n        /* \"#utility.yul\":9509:9580   */\n      tag_163\n      jump\t// in\n    tag_188:\n        /* \"#utility.yul\":9365:9587   */\n      swap3\n      swap2\n      pop\n      pop\n      jump\t// out\n        /* \"#utility.yul\":9593:9925   */\n    tag_13:\n        /* \"#utility.yul\":9714:9718   */\n      0x00\n        /* \"#utility.yul\":9752:9754   */\n      0x40\n        /* \"#utility.yul\":9741:9750   */\n      dup3\n        /* \"#utility.yul\":9737:9755   */\n      add\n        /* \"#utility.yul\":9729:9755   */\n      swap1\n      pop\n        /* \"#utility.yul\":9765:9836   */\n      tag_190\n        /* \"#utility.yul\":9833:9834   */\n      0x00\n        /* \"#utility.yul\":9822:9831   */\n      dup4\n        /* \"#utility.yul\":9818:9835   */\n      add\n        /* \"#utility.yul\":9809:9815   */\n      dup6\n        /* \"#utility.yul\":9765:9836   */\n      tag_163\n      jump\t// in\n    tag_190:\n        /* \"#utility.yul\":9846:9918   */\n      tag_191\n        /* \"#utility.yul\":9914:9916   */\n      0x20\n        /* \"#utility.yul\":9903:9912   */\n      dup4\n        /* \"#utility.yul\":9899:9917   */\n      add\n        /* \"#utility.yul\":9890:9896   */\n      dup5\n        /* \"#utility.yul\":9846:9918   */\n      tag_132\n      jump\t// in\n    tag_191:\n        /* \"#utility.yul\":9593:9925   */\n      swap4\n      swap3\n      pop\n      pop\n      pop\n      jump\t// out\n        /* \"#utility.yul\":10012:10180   */\n    tag_155:\n        /* \"#utility.yul\":10095:10106   */\n      0x00\n        /* \"#utility.yul\":10129:10135   */\n      dup3\n        /* \"#utility.yul\":10124:10127   */\n      dup3\n        /* \"#utility.yul\":10117:10136   */\n      mstore\n        /* \"#utility.yul\":10169:10173   */\n      0x20\n        /* \"#utility.yul\":10164:10167   */\n      dup3\n        /* \"#utility.yul\":10160:10174   */\n      add\n        /* \"#utility.yul\":10145:10174   */\n      swap1\n      pop\n        /* \"#utility.yul\":10012:10180   */\n      swap3\n      swap2\n      pop\n      pop\n      jump\t// out\n        /* \"#utility.yul\":10186:10355   */\n    tag_139:\n        /* \"#utility.yul\":10270:10281   */\n      0x00\n        /* \"#utility.yul\":10304:10310   */\n      dup3\n        /* \"#utility.yul\":10299:10302   */\n      dup3\n        /* \"#utility.yul\":10292:10311   */\n      mstore\n        /* \"#utility.yul\":10344:10348   */\n      0x20\n        /* \"#utility.yul\":10339:10342   */\n      dup3\n        /* \"#utility.yul\":10335:10349   */\n      add\n        /* \"#utility.yul\":10320:10349   */\n      swap1\n      pop\n        /* \"#utility.yul\":10186:10355   */\n      swap3\n      swap2\n      pop\n      pop\n      jump\t// out\n        /* \"#utility.yul\":10361:10666   */\n    tag_71:\n        /* \"#utility.yul\":10401:10404   */\n      0x00\n        /* \"#utility.yul\":10420:10440   */\n      tag_197\n        /* \"#utility.yul\":10438:10439   */\n      dup3\n        /* \"#utility.yul\":10420:10440   */\n      tag_166\n      jump\t// in\n    tag_197:\n        /* \"#utility.yul\":10415:10440   */\n      swap2\n      pop\n        /* \"#utility.yul\":10454:10474   */\n      tag_198\n        /* \"#utility.yul\":10472:10473   */\n      dup4\n        /* \"#utility.yul\":10454:10474   */\n      tag_166\n      jump\t// in\n    tag_198:\n        /* \"#utility.yul\":10449:10474   */\n      swap3\n      pop\n        /* \"#utility.yul\":10608:10609   */\n      dup3\n        /* \"#utility.yul\":10540:10606   */\n      0xffffffffffffffffffffffffffffffffffffffffffffffffffffffffffffffff\n        /* \"#utility.yul\":10536:10610   */\n      sub\n        /* \"#utility.yul\":10533:10534   */\n      dup3\n        /* \"#utility.yul\":10530:10611   */\n      gt\n        /* \"#utility.yul\":10527:10634   */\n      iszero\n      tag_199\n      jumpi\n        /* \"#utility.yul\":10614:10632   */\n      tag_200\n      tag_201\n      jump\t// in\n    tag_200:\n        /* \"#utility.yul\":10527:10634   */\n    tag_199:\n        /* \"#utility.yul\":10658:10659   */\n      dup3\n        /* \"#utility.yul\":10655:10656   */\n      dup3\n        /* \"#utility.yul\":10651:10660   */\n      add\n        /* \"#utility.yul\":10644:10660   */\n      swap1\n      pop\n        /* \"#utility.yul\":10361:10666   */\n      swap3\n      swap2\n      pop\n      pop\n      jump\t// out\n        /* \"#utility.yul\":10672:11020   */\n    tag_66:\n        /* \"#utility.yul\":10712:10719   */\n      0x00\n        /* \"#utility.yul\":10735:10755   */\n      tag_203\n        /* \"#utility.yul\":10753:10754   */\n      dup3\n        /* \"#utility.yul\":10735:10755   */\n      tag_166\n      jump\t// in\n    tag_203:\n        /* \"#utility.yul\":10730:10755   */\n      swap2\n      pop\n        /* \"#utility.yul\":10769:10789   */\n      tag_204\n        /* \"#utility.yul\":10787:10788   */\n      dup4\n        /* \"#utility.yul\":10769:10789   */\n      tag_166\n      jump\t// in\n    tag_204:\n        /* \"#utility.yul\":10764:10789   */\n      swap3\n      pop\n        /* \"#utility.yul\":10957:10958   */\n      dup2\n        /* \"#utility.yul\":10889:10955   */\n      0xffffffffffffffffffffffffffffffffffffffffffffffffffffffffffffffff\n        /* \"#utility.yul\":10885:10959   */\n      div\n        /* \"#utility.yul\":10882:10883   */\n      dup4\n        /* \"#utility.yul\":10879:10960   */\n      gt\n        /* \"#utility.yul\":10874:10875   */\n      dup3\n        /* \"#utility.yul\":10867:10876   */\n      iszero\n        /* \"#utility.yul\":10860:10877   */\n      iszero\n        /* \"#utility.yul\":10856:10961   */\n      and\n        /* \"#utility.yul\":10853:10984   */\n      iszero\n      tag_205\n      jumpi\n        /* \"#utility.yul\":10964:10982   */\n      tag_206\n      tag_201\n      jump\t// in\n    tag_206:\n        /* \"#utility.yul\":10853:10984   */\n    tag_205:\n        /* \"#utility.yul\":11012:11013   */\n      dup3\n        /* \"#utility.yul\":11009:11010   */\n      dup3\n        /* \"#utility.yul\":11005:11014   */\n      mul\n        /* \"#utility.yul\":10994:11014   */\n      swap1\n      pop\n        /* \"#utility.yul\":10672:11020   */\n      swap3\n      swap2\n      pop\n      pop\n      jump\t// out\n        /* \"#utility.yul\":11026:11217   */\n    tag_42:\n        /* \"#utility.yul\":11066:11070   */\n      0x00\n        /* \"#utility.yul\":11086:11106   */\n      tag_208\n        /* \"#utility.yul\":11104:11105   */\n      dup3\n        /* \"#utility.yul\":11086:11106   */\n      tag_166\n      jump\t// in\n    tag_208:\n        /* \"#utility.yul\":11081:11106   */\n      swap2\n      pop\n        /* \"#utility.yul\":11120:11140   */\n      tag_209\n        /* \"#utility.yul\":11138:11139   */\n      dup4\n        /* \"#utility.yul\":11120:11140   */\n      tag_166\n      jump\t// in\n    tag_209:\n        /* \"#utility.yul\":11115:11140   */\n      swap3\n      pop\n        /* \"#utility.yul\":11159:11160   */\n      dup3\n        /* \"#utility.yul\":11156:11157   */\n      dup3\n        /* \"#utility.yul\":11153:11161   */\n      lt\n        /* \"#utility.yul\":11150:11184   */\n      iszero\n      tag_210\n      jumpi\n        /* \"#utility.yul\":11164:11182   */\n      tag_211\n      tag_201\n      jump\t// in\n    tag_211:\n        /* \"#utility.yul\":11150:11184   */\n    tag_210:\n        /* \"#utility.yul\":11209:11210   */\n      dup3\n        /* \"#utility.yul\":11206:11207   */\n      dup3\n        /* \"#utility.yul\":11202:11211   */\n      sub\n        /* \"#utility.yul\":11194:11211   */\n      swap1\n      pop\n        /* \"#utility.yul\":11026:11217   */\n      swap3\n      swap2\n      pop\n      pop\n      jump\t// out\n        /* \"#utility.yul\":11223:11319   */\n    tag_135:\n        /* \"#utility.yul\":11260:11267   */\n      0x00\n        /* \"#utility.yul\":11289:11313   */\n      tag_213\n        /* \"#utility.yul\":11307:11312   */\n      dup3\n        /* \"#utility.yul\":11289:11313   */\n      tag_214\n      jump\t// in\n    tag_213:\n        /* \"#utility.yul\":11278:11313   */\n      swap1\n      pop\n        /* \"#utility.yul\":11223:11319   */\n      swap2\n      swap1\n      pop\n      jump\t// out\n        /* \"#utility.yul\":11325:11429   */\n    tag_215:\n        /* \"#utility.yul\":11370:11377   */\n      0x00\n        /* \"#utility.yul\":11399:11423   */\n      tag_217\n        /* \"#utility.yul\":11417:11422   */\n      dup3\n        /* \"#utility.yul\":11399:11423   */\n      tag_214\n      jump\t// in\n    tag_217:\n        /* \"#utility.yul\":11388:11423   */\n      swap1\n      pop\n        /* \"#utility.yul\":11325:11429   */\n      swap2\n      swap1\n      pop\n      jump\t// out\n        /* \"#utility.yul\":11435:11525   */\n    tag_218:\n        /* \"#utility.yul\":11469:11476   */\n      0x00\n        /* \"#utility.yul\":11512:11517   */\n      dup2\n        /* \"#utility.yul\":11505:11518   */\n      iszero\n        /* \"#utility.yul\":11498:11519   */\n      iszero\n        /* \"#utility.yul\":11487:11519   */\n      swap1\n      pop\n        /* \"#utility.yul\":11435:11525   */\n      swap2\n      swap1\n      pop\n      jump\t// out\n        /* \"#utility.yul\":11531:11657   */\n    tag_214:\n        /* \"#utility.yul\":11568:11575   */\n      0x00\n        /* \"#utility.yul\":11608:11650   */\n      0xffffffffffffffffffffffffffffffffffffffff\n        /* \"#utility.yul\":11601:11606   */\n      dup3\n        /* \"#utility.yul\":11597:11651   */\n      and\n        /* \"#utility.yul\":11586:11651   */\n      swap1\n      pop\n        /* \"#utility.yul\":11531:11657   */\n      swap2\n      swap1\n      pop\n      jump\t// out\n        /* \"#utility.yul\":11663:11740   */\n    tag_166:\n        /* \"#utility.yul\":11700:11707   */\n      0x00\n        /* \"#utility.yul\":11729:11734   */\n      dup2\n        /* \"#utility.yul\":11718:11734   */\n      swap1\n      pop\n        /* \"#utility.yul\":11663:11740   */\n      swap2\n      swap1\n      pop\n      jump\t// out\n        /* \"#utility.yul\":11746:11926   */\n    tag_201:\n        /* \"#utility.yul\":11794:11871   */\n      0x4e487b7100000000000000000000000000000000000000000000000000000000\n        /* \"#utility.yul\":11791:11792   */\n      0x00\n        /* \"#utility.yul\":11784:11872   */\n      mstore\n        /* \"#utility.yul\":11891:11895   */\n      0x11\n        /* \"#utility.yul\":11888:11889   */\n      0x04\n        /* \"#utility.yul\":11881:11896   */\n      mstore\n        /* \"#utility.yul\":11915:11919   */\n      0x24\n        /* \"#utility.yul\":11912:11913   */\n      0x00\n        /* \"#utility.yul\":11905:11920   */\n      revert\n        /* \"#utility.yul\":12055:12172   */\n    tag_100:\n        /* \"#utility.yul\":12164:12165   */\n      0x00\n        /* \"#utility.yul\":12161:12162   */\n      dup1\n        /* \"#utility.yul\":12154:12166   */\n      revert\n        /* \"#utility.yul\":12178:12354   */\n    tag_141:\n        /* \"#utility.yul\":12318:12346   */\n      0x436f6e7472616374206d75737420626520617070726f7665642e000000000000\n        /* \"#utility.yul\":12314:12315   */\n      0x00\n        /* \"#utility.yul\":12306:12312   */\n      dup3\n        /* \"#utility.yul\":12302:12316   */\n      add\n        /* \"#utility.yul\":12295:12347   */\n      mstore\n        /* \"#utility.yul\":12178:12354   */\n      pop\n      jump\t// out\n        /* \"#utility.yul\":12360:12582   */\n    tag_146:\n        /* \"#utility.yul\":12500:12534   */\n      0x496e73756666696369656e7420616d6f756e742073656e7420746f2073656c6c\n        /* \"#utility.yul\":12496:12497   */\n      0x00\n        /* \"#utility.yul\":12488:12494   */\n      dup3\n        /* \"#utility.yul\":12484:12498   */\n      add\n        /* \"#utility.yul\":12477:12535   */\n      mstore\n        /* \"#utility.yul\":12569:12574   */\n      0x65722e0000000000000000000000000000000000000000000000000000000000\n        /* \"#utility.yul\":12564:12566   */\n      0x20\n        /* \"#utility.yul\":12556:12562   */\n      dup3\n        /* \"#utility.yul\":12552:12567   */\n      add\n        /* \"#utility.yul\":12545:12575   */\n      mstore\n        /* \"#utility.yul\":12360:12582   */\n      pop\n      jump\t// out\n        /* \"#utility.yul\":12588:12812   */\n    tag_151:\n        /* \"#utility.yul\":12728:12762   */\n      0x4d757374206f776e20746f6b656e20746f2062652061626c6520746f206c6973\n        /* \"#utility.yul\":12724:12725   */\n      0x00\n        /* \"#utility.yul\":12716:12722   */\n      dup3\n        /* \"#utility.yul\":12712:12726   */\n      add\n        /* \"#utility.yul\":12705:12763   */\n      mstore\n        /* \"#utility.yul\":12797:12804   */\n      0x742069742e000000000000000000000000000000000000000000000000000000\n        /* \"#utility.yul\":12792:12794   */\n      0x20\n        /* \"#utility.yul\":12784:12790   */\n      dup3\n        /* \"#utility.yul\":12780:12795   */\n      add\n        /* \"#utility.yul\":12773:12805   */\n      mstore\n        /* \"#utility.yul\":12588:12812   */\n      pop\n      jump\t// out\n        /* \"#utility.yul\":12818:12976   */\n    tag_157:\n        /* \"#utility.yul\":12958:12968   */\n      0x5472616e73666572000000000000000000000000000000000000000000000000\n        /* \"#utility.yul\":12954:12955   */\n      0x00\n        /* \"#utility.yul\":12946:12952   */\n      dup3\n        /* \"#utility.yul\":12942:12956   */\n      add\n        /* \"#utility.yul\":12935:12969   */\n      mstore\n        /* \"#utility.yul\":12818:12976   */\n      pop\n      jump\t// out\n        /* \"#utility.yul\":12982:13151   */\n    tag_162:\n        /* \"#utility.yul\":13122:13143   */\n      0x496e73756666696369656e742066756e64732e00000000000000000000000000\n        /* \"#utility.yul\":13118:13119   */\n      0x00\n        /* \"#utility.yul\":13110:13116   */\n      dup3\n        /* \"#utility.yul\":13106:13120   */\n      add\n        /* \"#utility.yul\":13099:13144   */\n      mstore\n        /* \"#utility.yul\":12982:13151   */\n      pop\n      jump\t// out\n        /* \"#utility.yul\":13157:13279   */\n    tag_81:\n        /* \"#utility.yul\":13230:13254   */\n      tag_232\n        /* \"#utility.yul\":13248:13253   */\n      dup2\n        /* \"#utility.yul\":13230:13254   */\n      tag_135\n      jump\t// in\n    tag_232:\n        /* \"#utility.yul\":13223:13228   */\n      dup2\n        /* \"#utility.yul\":13220:13255   */\n      eq\n        /* \"#utility.yul\":13210:13273   */\n      tag_233\n      jumpi\n        /* \"#utility.yul\":13269:13270   */\n      0x00\n        /* \"#utility.yul\":13266:13267   */\n      dup1\n        /* \"#utility.yul\":13259:13271   */\n      revert\n        /* \"#utility.yul\":13210:13273   */\n    tag_233:\n        /* \"#utility.yul\":13157:13279   */\n      pop\n      jump\t// out\n        /* \"#utility.yul\":13285:13423   */\n    tag_85:\n        /* \"#utility.yul\":13366:13398   */\n      tag_235\n        /* \"#utility.yul\":13392:13397   */\n      dup2\n        /* \"#utility.yul\":13366:13398   */\n      tag_215\n      jump\t// in\n    tag_235:\n        /* \"#utility.yul\":13359:13364   */\n      dup2\n        /* \"#utility.yul\":13356:13399   */\n      eq\n        /* \"#utility.yul\":13346:13417   */\n      tag_236\n      jumpi\n        /* \"#utility.yul\":13413:13414   */\n      0x00\n        /* \"#utility.yul\":13410:13411   */\n      dup1\n        /* \"#utility.yul\":13403:13415   */\n      revert\n        /* \"#utility.yul\":13346:13417   */\n    tag_236:\n        /* \"#utility.yul\":13285:13423   */\n      pop\n      jump\t// out\n        /* \"#utility.yul\":13429:13545   */\n    tag_89:\n        /* \"#utility.yul\":13499:13520   */\n      tag_238\n        /* \"#utility.yul\":13514:13519   */\n      dup2\n        /* \"#utility.yul\":13499:13520   */\n      tag_218\n      jump\t// in\n    tag_238:\n        /* \"#utility.yul\":13492:13497   */\n      dup2\n        /* \"#utility.yul\":13489:13521   */\n      eq\n        /* \"#utility.yul\":13479:13539   */\n      tag_239\n      jumpi\n        /* \"#utility.yul\":13535:13536   */\n      0x00\n        /* \"#utility.yul\":13532:13533   */\n      dup1\n        /* \"#utility.yul\":13525:13537   */\n      revert\n        /* \"#utility.yul\":13479:13539   */\n    tag_239:\n        /* \"#utility.yul\":13429:13545   */\n      pop\n      jump\t// out\n        /* \"#utility.yul\":13551:13673   */\n    tag_93:\n        /* \"#utility.yul\":13624:13648   */\n      tag_241\n        /* \"#utility.yul\":13642:13647   */\n      dup2\n        /* \"#utility.yul\":13624:13648   */\n      tag_166\n      jump\t// in\n    tag_241:\n        /* \"#utility.yul\":13617:13622   */\n      dup2\n        /* \"#utility.yul\":13614:13649   */\n      eq\n        /* \"#utility.yul\":13604:13667   */\n      tag_242\n      jumpi\n        /* \"#utility.yul\":13663:13664   */\n      0x00\n        /* \"#utility.yul\":13660:13661   */\n      dup1\n        /* \"#utility.yul\":13653:13665   */\n      revert\n        /* \"#utility.yul\":13604:13667   */\n    tag_242:\n        /* \"#utility.yul\":13551:13673   */\n      pop\n      jump\t// out\n\n    auxdata: 0xa2646970667358221220fb2d143d638bd06634a7760713fa2332f86357077e55a7a4193e5aef084676e264736f6c63430008070033\n}\n",
				"bytecode": {
					"linkReferences": {},
					"object": "608060405234801561001057600080fd5b50610eac806100206000396000f3fe6080604052600436106100485760003560e01c806207df301461004d578062f714ce1461008b57806327e235e3146100b457806380abbe57146100f157806398968f151461011a575b600080fd5b34801561005957600080fd5b50610074600480360381019061006f91906107b2565b610136565b604051610082929190610b44565b60405180910390f35b34801561009757600080fd5b506100b260048036038101906100ad919061089f565b610187565b005b3480156100c057600080fd5b506100db60048036038101906100d69190610785565b6102aa565b6040516100e89190610b29565b60405180910390f35b3480156100fd57600080fd5b50610118600480360381019061011391906108df565b6102c2565b005b610134600480360381019061012f91906107f2565b610531565b005b6000602052816000526040600020602052806000526040600020600091509150508060000154908060010160009054906101000a900473ffffffffffffffffffffffffffffffffffffffff16905082565b600160003373ffffffffffffffffffffffffffffffffffffffff1673ffffffffffffffffffffffffffffffffffffffff16815260200190815260200160002054821115610209576040517f08c379a000000000000000000000000000000000000000000000000000000000815260040161020090610b09565b60405180910390fd5b8073ffffffffffffffffffffffffffffffffffffffff166108fc839081150290604051600060405180830381858888f1935050505015801561024f573d6000803e3d6000fd5b5081600160003373ffffffffffffffffffffffffffffffffffffffff1673ffffffffffffffffffffffffffffffffffffffff168152602001908152602001600020600082825461029f9190610c3f565b925050819055505050565b60016020528060005260406000206000915090505481565b600082905060008173ffffffffffffffffffffffffffffffffffffffff1662fdd58e33856040518363ffffffff1660e01b8152600401610303929190610a80565b60206040518083038186803b15801561031b57600080fd5b505afa15801561032f573d6000803e3d6000fd5b505050506040513d601f19601f820116820180604052508101906103539190610872565b11610393576040517f08c379a000000000000000000000000000000000000000000000000000000000815260040161038a90610ae9565b60405180910390fd5b8073ffffffffffffffffffffffffffffffffffffffff1663e985e9c533306040518363ffffffff1660e01b81526004016103ce9291906109ff565b60206040518083038186803b1580156103e657600080fd5b505afa1580156103fa573d6000803e3d6000fd5b505050506040513d601f19601f8201168201806040525081019061041e9190610845565b61045d576040517f08c379a000000000000000000000000000000000000000000000000000000000815260040161045490610aa9565b60405180910390fd5b60405180604001604052808581526020013373ffffffffffffffffffffffffffffffffffffffff168152506000808573ffffffffffffffffffffffffffffffffffffffff1673ffffffffffffffffffffffffffffffffffffffff16815260200190815260200160002060008481526020019081526020016000206000820151816000015560208201518160010160006101000a81548173ffffffffffffffffffffffffffffffffffffffff021916908373ffffffffffffffffffffffffffffffffffffffff16021790555090505050505050565b600083905060008060008673ffffffffffffffffffffffffffffffffffffffff1673ffffffffffffffffffffffffffffffffffffffff1681526020019081526020016000206000858152602001908152602001600020604051806040016040529081600082015481526020016001820160009054906101000a900473ffffffffffffffffffffffffffffffffffffffff1673ffffffffffffffffffffffffffffffffffffffff1673ffffffffffffffffffffffffffffffffffffffff168152505090508281600001516106049190610be5565b341015610646576040517f08c379a000000000000000000000000000000000000000000000000000000000815260040161063d90610ac9565b60405180910390fd5b3460016000836020015173ffffffffffffffffffffffffffffffffffffffff1673ffffffffffffffffffffffffffffffffffffffff16815260200190815260200160002060008282546106999190610b8f565b925050819055508173ffffffffffffffffffffffffffffffffffffffff1663f242432a82602001513387876040518563ffffffff1660e01b81526004016106e39493929190610a28565b600060405180830381600087803b1580156106fd57600080fd5b505af1158015610711573d6000803e3d6000fd5b505050505050505050565b60008135905061072b81610e1a565b92915050565b60008135905061074081610e31565b92915050565b60008151905061075581610e48565b92915050565b60008135905061076a81610e5f565b92915050565b60008151905061077f81610e5f565b92915050565b60006020828403121561079b5761079a610cfc565b5b60006107a98482850161071c565b91505092915050565b600080604083850312156107c9576107c8610cfc565b5b60006107d78582860161071c565b92505060206107e88582860161075b565b9150509250929050565b60008060006060848603121561080b5761080a610cfc565b5b60006108198682870161071c565b935050602061082a8682870161075b565b925050604061083b8682870161075b565b9150509250925092565b60006020828403121561085b5761085a610cfc565b5b600061086984828501610746565b91505092915050565b60006020828403121561088857610887610cfc565b5b600061089684828501610770565b91505092915050565b600080604083850312156108b6576108b5610cfc565b5b60006108c48582860161075b565b92505060206108d585828601610731565b9150509250929050565b6000806000606084860312156108f8576108f7610cfc565b5b60006109068682870161075b565b93505060206109178682870161071c565b92505060406109288682870161075b565b9150509250925092565b61093b81610c73565b82525050565b600061094e601a83610b7e565b915061095982610d01565b602082019050919050565b6000610971602383610b7e565b915061097c82610d2a565b604082019050919050565b6000610994602583610b7e565b915061099f82610d79565b604082019050919050565b60006109b7600883610b6d565b91506109c282610dc8565b602082019050919050565b60006109da601383610b7e565b91506109e582610df1565b602082019050919050565b6109f981610cc3565b82525050565b6000604082019050610a146000830185610932565b610a216020830184610932565b9392505050565b600060a082019050610a3d6000830187610932565b610a4a6020830186610932565b610a5760408301856109f0565b610a6460608301846109f0565b8181036080830152610a75816109aa565b905095945050505050565b6000604082019050610a956000830185610932565b610aa260208301846109f0565b9392505050565b60006020820190508181036000830152610ac281610941565b9050919050565b60006020820190508181036000830152610ae281610964565b9050919050565b60006020820190508181036000830152610b0281610987565b9050919050565b60006020820190508181036000830152610b22816109cd565b9050919050565b6000602082019050610b3e60008301846109f0565b92915050565b6000604082019050610b5960008301856109f0565b610b666020830184610932565b9392505050565b600082825260208201905092915050565b600082825260208201905092915050565b6000610b9a82610cc3565b9150610ba583610cc3565b9250827fffffffffffffffffffffffffffffffffffffffffffffffffffffffffffffffff03821115610bda57610bd9610ccd565b5b828201905092915050565b6000610bf082610cc3565b9150610bfb83610cc3565b9250817fffffffffffffffffffffffffffffffffffffffffffffffffffffffffffffffff0483118215151615610c3457610c33610ccd565b5b828202905092915050565b6000610c4a82610cc3565b9150610c5583610cc3565b925082821015610c6857610c67610ccd565b5b828203905092915050565b6000610c7e82610ca3565b9050919050565b6000610c9082610ca3565b9050919050565b60008115159050919050565b600073ffffffffffffffffffffffffffffffffffffffff82169050919050565b6000819050919050565b7f4e487b7100000000000000000000000000000000000000000000000000000000600052601160045260246000fd5b600080fd5b7f436f6e7472616374206d75737420626520617070726f7665642e000000000000600082015250565b7f496e73756666696369656e7420616d6f756e742073656e7420746f2073656c6c60008201527f65722e0000000000000000000000000000000000000000000000000000000000602082015250565b7f4d757374206f776e20746f6b656e20746f2062652061626c6520746f206c697360008201527f742069742e000000000000000000000000000000000000000000000000000000602082015250565b7f5472616e73666572000000000000000000000000000000000000000000000000600082015250565b7f496e73756666696369656e742066756e64732e00000000000000000000000000600082015250565b610e2381610c73565b8114610e2e57600080fd5b50565b610e3a81610c85565b8114610e4557600080fd5b50565b610e5181610c97565b8114610e5c57600080fd5b50565b610e6881610cc3565b8114610e7357600080fd5b5056fea2646970667358221220fb2d143d638bd06634a7760713fa2332f86357077e55a7a4193e5aef084676e264736f6c63430008070033",
					"opcodes": "PUSH1 0x80 PUSH1 0x40 MSTORE CALLVALUE DUP1 ISZERO PUSH2 0x10 JUMPI PUSH1 0x0 DUP1 REVERT JUMPDEST POP PUSH2 0xEAC DUP1 PUSH2 0x20 PUSH1 0x0 CODECOPY PUSH1 0x0 RETURN INVALID PUSH1 0x80 PUSH1 0x40 MSTORE PUSH1 0x4 CALLDATASIZE LT PUSH2 0x48 JUMPI PUSH1 0x0 CALLDATALOAD PUSH1 0xE0 SHR DUP1 PUSH3 0x7DF30 EQ PUSH2 0x4D JUMPI DUP1 PUSH3 0xF714CE EQ PUSH2 0x8B JUMPI DUP1 PUSH4 0x27E235E3 EQ PUSH2 0xB4 JUMPI DUP1 PUSH4 0x80ABBE57 EQ PUSH2 0xF1 JUMPI DUP1 PUSH4 0x98968F15 EQ PUSH2 0x11A JUMPI JUMPDEST PUSH1 0x0 DUP1 REVERT JUMPDEST CALLVALUE DUP1 ISZERO PUSH2 0x59 JUMPI PUSH1 0x0 DUP1 REVERT JUMPDEST POP PUSH2 0x74 PUSH1 0x4 DUP1 CALLDATASIZE SUB DUP2 ADD SWAP1 PUSH2 0x6F SWAP2 SWAP1 PUSH2 0x7B2 JUMP JUMPDEST PUSH2 0x136 JUMP JUMPDEST PUSH1 0x40 MLOAD PUSH2 0x82 SWAP3 SWAP2 SWAP1 PUSH2 0xB44 JUMP JUMPDEST PUSH1 0x40 MLOAD DUP1 SWAP2 SUB SWAP1 RETURN JUMPDEST CALLVALUE DUP1 ISZERO PUSH2 0x97 JUMPI PUSH1 0x0 DUP1 REVERT JUMPDEST POP PUSH2 0xB2 PUSH1 0x4 DUP1 CALLDATASIZE SUB DUP2 ADD SWAP1 PUSH2 0xAD SWAP2 SWAP1 PUSH2 0x89F JUMP JUMPDEST PUSH2 0x187 JUMP JUMPDEST STOP JUMPDEST CALLVALUE DUP1 ISZERO PUSH2 0xC0 JUMPI PUSH1 0x0 DUP1 REVERT JUMPDEST POP PUSH2 0xDB PUSH1 0x4 DUP1 CALLDATASIZE SUB DUP2 ADD SWAP1 PUSH2 0xD6 SWAP2 SWAP1 PUSH2 0x785 JUMP JUMPDEST PUSH2 0x2AA JUMP JUMPDEST PUSH1 0x40 MLOAD PUSH2 0xE8 SWAP2 SWAP1 PUSH2 0xB29 JUMP JUMPDEST PUSH1 0x40 MLOAD DUP1 SWAP2 SUB SWAP1 RETURN JUMPDEST CALLVALUE DUP1 ISZERO PUSH2 0xFD JUMPI PUSH1 0x0 DUP1 REVERT JUMPDEST POP PUSH2 0x118 PUSH1 0x4 DUP1 CALLDATASIZE SUB DUP2 ADD SWAP1 PUSH2 0x113 SWAP2 SWAP1 PUSH2 0x8DF JUMP JUMPDEST PUSH2 0x2C2 JUMP JUMPDEST STOP JUMPDEST PUSH2 0x134 PUSH1 0x4 DUP1 CALLDATASIZE SUB DUP2 ADD SWAP1 PUSH2 0x12F SWAP2 SWAP1 PUSH2 0x7F2 JUMP JUMPDEST PUSH2 0x531 JUMP JUMPDEST STOP JUMPDEST PUSH1 0x0 PUSH1 0x20 MSTORE DUP2 PUSH1 0x0 MSTORE PUSH1 0x40 PUSH1 0x0 KECCAK256 PUSH1 0x20 MSTORE DUP1 PUSH1 0x0 MSTORE PUSH1 0x40 PUSH1 0x0 KECCAK256 PUSH1 0x0 SWAP2 POP SWAP2 POP POP DUP1 PUSH1 0x0 ADD SLOAD SWAP1 DUP1 PUSH1 0x1 ADD PUSH1 0x0 SWAP1 SLOAD SWAP1 PUSH2 0x100 EXP SWAP1 DIV PUSH20 0xFFFFFFFFFFFFFFFFFFFFFFFFFFFFFFFFFFFFFFFF AND SWAP1 POP DUP3 JUMP JUMPDEST PUSH1 0x1 PUSH1 0x0 CALLER PUSH20 0xFFFFFFFFFFFFFFFFFFFFFFFFFFFFFFFFFFFFFFFF AND PUSH20 0xFFFFFFFFFFFFFFFFFFFFFFFFFFFFFFFFFFFFFFFF AND DUP2 MSTORE PUSH1 0x20 ADD SWAP1 DUP2 MSTORE PUSH1 0x20 ADD PUSH1 0x0 KECCAK256 SLOAD DUP3 GT ISZERO PUSH2 0x209 JUMPI PUSH1 0x40 MLOAD PUSH32 0x8C379A000000000000000000000000000000000000000000000000000000000 DUP2 MSTORE PUSH1 0x4 ADD PUSH2 0x200 SWAP1 PUSH2 0xB09 JUMP JUMPDEST PUSH1 0x40 MLOAD DUP1 SWAP2 SUB SWAP1 REVERT JUMPDEST DUP1 PUSH20 0xFFFFFFFFFFFFFFFFFFFFFFFFFFFFFFFFFFFFFFFF AND PUSH2 0x8FC DUP4 SWAP1 DUP2 ISZERO MUL SWAP1 PUSH1 0x40 MLOAD PUSH1 0x0 PUSH1 0x40 MLOAD DUP1 DUP4 SUB DUP2 DUP6 DUP9 DUP9 CALL SWAP4 POP POP POP POP ISZERO DUP1 ISZERO PUSH2 0x24F JUMPI RETURNDATASIZE PUSH1 0x0 DUP1 RETURNDATACOPY RETURNDATASIZE PUSH1 0x0 REVERT JUMPDEST POP DUP2 PUSH1 0x1 PUSH1 0x0 CALLER PUSH20 0xFFFFFFFFFFFFFFFFFFFFFFFFFFFFFFFFFFFFFFFF AND PUSH20 0xFFFFFFFFFFFFFFFFFFFFFFFFFFFFFFFFFFFFFFFF AND DUP2 MSTORE PUSH1 0x20 ADD SWAP1 DUP2 MSTORE PUSH1 0x20 ADD PUSH1 0x0 KECCAK256 PUSH1 0x0 DUP3 DUP3 SLOAD PUSH2 0x29F SWAP2 SWAP1 PUSH2 0xC3F JUMP JUMPDEST SWAP3 POP POP DUP2 SWAP1 SSTORE POP POP POP JUMP JUMPDEST PUSH1 0x1 PUSH1 0x20 MSTORE DUP1 PUSH1 0x0 MSTORE PUSH1 0x40 PUSH1 0x0 KECCAK256 PUSH1 0x0 SWAP2 POP SWAP1 POP SLOAD DUP2 JUMP JUMPDEST PUSH1 0x0 DUP3 SWAP1 POP PUSH1 0x0 DUP2 PUSH20 0xFFFFFFFFFFFFFFFFFFFFFFFFFFFFFFFFFFFFFFFF AND PUSH3 0xFDD58E CALLER DUP6 PUSH1 0x40 MLOAD DUP4 PUSH4 0xFFFFFFFF AND PUSH1 0xE0 SHL DUP2 MSTORE PUSH1 0x4 ADD PUSH2 0x303 SWAP3 SWAP2 SWAP1 PUSH2 0xA80 JUMP JUMPDEST PUSH1 0x20 PUSH1 0x40 MLOAD DUP1 DUP4 SUB DUP2 DUP7 DUP1 EXTCODESIZE ISZERO DUP1 ISZERO PUSH2 0x31B JUMPI PUSH1 0x0 DUP1 REVERT JUMPDEST POP GAS STATICCALL ISZERO DUP1 ISZERO PUSH2 0x32F JUMPI RETURNDATASIZE PUSH1 0x0 DUP1 RETURNDATACOPY RETURNDATASIZE PUSH1 0x0 REVERT JUMPDEST POP POP POP POP PUSH1 0x40 MLOAD RETURNDATASIZE PUSH1 0x1F NOT PUSH1 0x1F DUP3 ADD AND DUP3 ADD DUP1 PUSH1 0x40 MSTORE POP DUP2 ADD SWAP1 PUSH2 0x353 SWAP2 SWAP1 PUSH2 0x872 JUMP JUMPDEST GT PUSH2 0x393 JUMPI PUSH1 0x40 MLOAD PUSH32 0x8C379A000000000000000000000000000000000000000000000000000000000 DUP2 MSTORE PUSH1 0x4 ADD PUSH2 0x38A SWAP1 PUSH2 0xAE9 JUMP JUMPDEST PUSH1 0x40 MLOAD DUP1 SWAP2 SUB SWAP1 REVERT JUMPDEST DUP1 PUSH20 0xFFFFFFFFFFFFFFFFFFFFFFFFFFFFFFFFFFFFFFFF AND PUSH4 0xE985E9C5 CALLER ADDRESS PUSH1 0x40 MLOAD DUP4 PUSH4 0xFFFFFFFF AND PUSH1 0xE0 SHL DUP2 MSTORE PUSH1 0x4 ADD PUSH2 0x3CE SWAP3 SWAP2 SWAP1 PUSH2 0x9FF JUMP JUMPDEST PUSH1 0x20 PUSH1 0x40 MLOAD DUP1 DUP4 SUB DUP2 DUP7 DUP1 EXTCODESIZE ISZERO DUP1 ISZERO PUSH2 0x3E6 JUMPI PUSH1 0x0 DUP1 REVERT JUMPDEST POP GAS STATICCALL ISZERO DUP1 ISZERO PUSH2 0x3FA JUMPI RETURNDATASIZE PUSH1 0x0 DUP1 RETURNDATACOPY RETURNDATASIZE PUSH1 0x0 REVERT JUMPDEST POP POP POP POP PUSH1 0x40 MLOAD RETURNDATASIZE PUSH1 0x1F NOT PUSH1 0x1F DUP3 ADD AND DUP3 ADD DUP1 PUSH1 0x40 MSTORE POP DUP2 ADD SWAP1 PUSH2 0x41E SWAP2 SWAP1 PUSH2 0x845 JUMP JUMPDEST PUSH2 0x45D JUMPI PUSH1 0x40 MLOAD PUSH32 0x8C379A000000000000000000000000000000000000000000000000000000000 DUP2 MSTORE PUSH1 0x4 ADD PUSH2 0x454 SWAP1 PUSH2 0xAA9 JUMP JUMPDEST PUSH1 0x40 MLOAD DUP1 SWAP2 SUB SWAP1 REVERT JUMPDEST PUSH1 0x40 MLOAD DUP1 PUSH1 0x40 ADD PUSH1 0x40 MSTORE DUP1 DUP6 DUP2 MSTORE PUSH1 0x20 ADD CALLER PUSH20 0xFFFFFFFFFFFFFFFFFFFFFFFFFFFFFFFFFFFFFFFF AND DUP2 MSTORE POP PUSH1 0x0 DUP1 DUP6 PUSH20 0xFFFFFFFFFFFFFFFFFFFFFFFFFFFFFFFFFFFFFFFF AND PUSH20 0xFFFFFFFFFFFFFFFFFFFFFFFFFFFFFFFFFFFFFFFF AND DUP2 MSTORE PUSH1 0x20 ADD SWAP1 DUP2 MSTORE PUSH1 0x20 ADD PUSH1 0x0 KECCAK256 PUSH1 0x0 DUP5 DUP2 MSTORE PUSH1 0x20 ADD SWAP1 DUP2 MSTORE PUSH1 0x20 ADD PUSH1 0x0 KECCAK256 PUSH1 0x0 DUP3 ADD MLOAD DUP2 PUSH1 0x0 ADD SSTORE PUSH1 0x20 DUP3 ADD MLOAD DUP2 PUSH1 0x1 ADD PUSH1 0x0 PUSH2 0x100 EXP DUP2 SLOAD DUP2 PUSH20 0xFFFFFFFFFFFFFFFFFFFFFFFFFFFFFFFFFFFFFFFF MUL NOT AND SWAP1 DUP4 PUSH20 0xFFFFFFFFFFFFFFFFFFFFFFFFFFFFFFFFFFFFFFFF AND MUL OR SWAP1 SSTORE POP SWAP1 POP POP POP POP POP POP JUMP JUMPDEST PUSH1 0x0 DUP4 SWAP1 POP PUSH1 0x0 DUP1 PUSH1 0x0 DUP7 PUSH20 0xFFFFFFFFFFFFFFFFFFFFFFFFFFFFFFFFFFFFFFFF AND PUSH20 0xFFFFFFFFFFFFFFFFFFFFFFFFFFFFFFFFFFFFFFFF AND DUP2 MSTORE PUSH1 0x20 ADD SWAP1 DUP2 MSTORE PUSH1 0x20 ADD PUSH1 0x0 KECCAK256 PUSH1 0x0 DUP6 DUP2 MSTORE PUSH1 0x20 ADD SWAP1 DUP2 MSTORE PUSH1 0x20 ADD PUSH1 0x0 KECCAK256 PUSH1 0x40 MLOAD DUP1 PUSH1 0x40 ADD PUSH1 0x40 MSTORE SWAP1 DUP2 PUSH1 0x0 DUP3 ADD SLOAD DUP2 MSTORE PUSH1 0x20 ADD PUSH1 0x1 DUP3 ADD PUSH1 0x0 SWAP1 SLOAD SWAP1 PUSH2 0x100 EXP SWAP1 DIV PUSH20 0xFFFFFFFFFFFFFFFFFFFFFFFFFFFFFFFFFFFFFFFF AND PUSH20 0xFFFFFFFFFFFFFFFFFFFFFFFFFFFFFFFFFFFFFFFF AND PUSH20 0xFFFFFFFFFFFFFFFFFFFFFFFFFFFFFFFFFFFFFFFF AND DUP2 MSTORE POP POP SWAP1 POP DUP3 DUP2 PUSH1 0x0 ADD MLOAD PUSH2 0x604 SWAP2 SWAP1 PUSH2 0xBE5 JUMP JUMPDEST CALLVALUE LT ISZERO PUSH2 0x646 JUMPI PUSH1 0x40 MLOAD PUSH32 0x8C379A000000000000000000000000000000000000000000000000000000000 DUP2 MSTORE PUSH1 0x4 ADD PUSH2 0x63D SWAP1 PUSH2 0xAC9 JUMP JUMPDEST PUSH1 0x40 MLOAD DUP1 SWAP2 SUB SWAP1 REVERT JUMPDEST CALLVALUE PUSH1 0x1 PUSH1 0x0 DUP4 PUSH1 0x20 ADD MLOAD PUSH20 0xFFFFFFFFFFFFFFFFFFFFFFFFFFFFFFFFFFFFFFFF AND PUSH20 0xFFFFFFFFFFFFFFFFFFFFFFFFFFFFFFFFFFFFFFFF AND DUP2 MSTORE PUSH1 0x20 ADD SWAP1 DUP2 MSTORE PUSH1 0x20 ADD PUSH1 0x0 KECCAK256 PUSH1 0x0 DUP3 DUP3 SLOAD PUSH2 0x699 SWAP2 SWAP1 PUSH2 0xB8F JUMP JUMPDEST SWAP3 POP POP DUP2 SWAP1 SSTORE POP DUP2 PUSH20 0xFFFFFFFFFFFFFFFFFFFFFFFFFFFFFFFFFFFFFFFF AND PUSH4 0xF242432A DUP3 PUSH1 0x20 ADD MLOAD CALLER DUP8 DUP8 PUSH1 0x40 MLOAD DUP6 PUSH4 0xFFFFFFFF AND PUSH1 0xE0 SHL DUP2 MSTORE PUSH1 0x4 ADD PUSH2 0x6E3 SWAP5 SWAP4 SWAP3 SWAP2 SWAP1 PUSH2 0xA28 JUMP JUMPDEST PUSH1 0x0 PUSH1 0x40 MLOAD DUP1 DUP4 SUB DUP2 PUSH1 0x0 DUP8 DUP1 EXTCODESIZE ISZERO DUP1 ISZERO PUSH2 0x6FD JUMPI PUSH1 0x0 DUP1 REVERT JUMPDEST POP GAS CALL ISZERO DUP1 ISZERO PUSH2 0x711 JUMPI RETURNDATASIZE PUSH1 0x0 DUP1 RETURNDATACOPY RETURNDATASIZE PUSH1 0x0 REVERT JUMPDEST POP POP POP POP POP POP POP POP POP JUMP JUMPDEST PUSH1 0x0 DUP2 CALLDATALOAD SWAP1 POP PUSH2 0x72B DUP2 PUSH2 0xE1A JUMP JUMPDEST SWAP3 SWAP2 POP POP JUMP JUMPDEST PUSH1 0x0 DUP2 CALLDATALOAD SWAP1 POP PUSH2 0x740 DUP2 PUSH2 0xE31 JUMP JUMPDEST SWAP3 SWAP2 POP POP JUMP JUMPDEST PUSH1 0x0 DUP2 MLOAD SWAP1 POP PUSH2 0x755 DUP2 PUSH2 0xE48 JUMP JUMPDEST SWAP3 SWAP2 POP POP JUMP JUMPDEST PUSH1 0x0 DUP2 CALLDATALOAD SWAP1 POP PUSH2 0x76A DUP2 PUSH2 0xE5F JUMP JUMPDEST SWAP3 SWAP2 POP POP JUMP JUMPDEST PUSH1 0x0 DUP2 MLOAD SWAP1 POP PUSH2 0x77F DUP2 PUSH2 0xE5F JUMP JUMPDEST SWAP3 SWAP2 POP POP JUMP JUMPDEST PUSH1 0x0 PUSH1 0x20 DUP3 DUP5 SUB SLT ISZERO PUSH2 0x79B JUMPI PUSH2 0x79A PUSH2 0xCFC JUMP JUMPDEST JUMPDEST PUSH1 0x0 PUSH2 0x7A9 DUP5 DUP3 DUP6 ADD PUSH2 0x71C JUMP JUMPDEST SWAP2 POP POP SWAP3 SWAP2 POP POP JUMP JUMPDEST PUSH1 0x0 DUP1 PUSH1 0x40 DUP4 DUP6 SUB SLT ISZERO PUSH2 0x7C9 JUMPI PUSH2 0x7C8 PUSH2 0xCFC JUMP JUMPDEST JUMPDEST PUSH1 0x0 PUSH2 0x7D7 DUP6 DUP3 DUP7 ADD PUSH2 0x71C JUMP JUMPDEST SWAP3 POP POP PUSH1 0x20 PUSH2 0x7E8 DUP6 DUP3 DUP7 ADD PUSH2 0x75B JUMP JUMPDEST SWAP2 POP POP SWAP3 POP SWAP3 SWAP1 POP JUMP JUMPDEST PUSH1 0x0 DUP1 PUSH1 0x0 PUSH1 0x60 DUP5 DUP7 SUB SLT ISZERO PUSH2 0x80B JUMPI PUSH2 0x80A PUSH2 0xCFC JUMP JUMPDEST JUMPDEST PUSH1 0x0 PUSH2 0x819 DUP7 DUP3 DUP8 ADD PUSH2 0x71C JUMP JUMPDEST SWAP4 POP POP PUSH1 0x20 PUSH2 0x82A DUP7 DUP3 DUP8 ADD PUSH2 0x75B JUMP JUMPDEST SWAP3 POP POP PUSH1 0x40 PUSH2 0x83B DUP7 DUP3 DUP8 ADD PUSH2 0x75B JUMP JUMPDEST SWAP2 POP POP SWAP3 POP SWAP3 POP SWAP3 JUMP JUMPDEST PUSH1 0x0 PUSH1 0x20 DUP3 DUP5 SUB SLT ISZERO PUSH2 0x85B JUMPI PUSH2 0x85A PUSH2 0xCFC JUMP JUMPDEST JUMPDEST PUSH1 0x0 PUSH2 0x869 DUP5 DUP3 DUP6 ADD PUSH2 0x746 JUMP JUMPDEST SWAP2 POP POP SWAP3 SWAP2 POP POP JUMP JUMPDEST PUSH1 0x0 PUSH1 0x20 DUP3 DUP5 SUB SLT ISZERO PUSH2 0x888 JUMPI PUSH2 0x887 PUSH2 0xCFC JUMP JUMPDEST JUMPDEST PUSH1 0x0 PUSH2 0x896 DUP5 DUP3 DUP6 ADD PUSH2 0x770 JUMP JUMPDEST SWAP2 POP POP SWAP3 SWAP2 POP POP JUMP JUMPDEST PUSH1 0x0 DUP1 PUSH1 0x40 DUP4 DUP6 SUB SLT ISZERO PUSH2 0x8B6 JUMPI PUSH2 0x8B5 PUSH2 0xCFC JUMP JUMPDEST JUMPDEST PUSH1 0x0 PUSH2 0x8C4 DUP6 DUP3 DUP7 ADD PUSH2 0x75B JUMP JUMPDEST SWAP3 POP POP PUSH1 0x20 PUSH2 0x8D5 DUP6 DUP3 DUP7 ADD PUSH2 0x731 JUMP JUMPDEST SWAP2 POP POP SWAP3 POP SWAP3 SWAP1 POP JUMP JUMPDEST PUSH1 0x0 DUP1 PUSH1 0x0 PUSH1 0x60 DUP5 DUP7 SUB SLT ISZERO PUSH2 0x8F8 JUMPI PUSH2 0x8F7 PUSH2 0xCFC JUMP JUMPDEST JUMPDEST PUSH1 0x0 PUSH2 0x906 DUP7 DUP3 DUP8 ADD PUSH2 0x75B JUMP JUMPDEST SWAP4 POP POP PUSH1 0x20 PUSH2 0x917 DUP7 DUP3 DUP8 ADD PUSH2 0x71C JUMP JUMPDEST SWAP3 POP POP PUSH1 0x40 PUSH2 0x928 DUP7 DUP3 DUP8 ADD PUSH2 0x75B JUMP JUMPDEST SWAP2 POP POP SWAP3 POP SWAP3 POP SWAP3 JUMP JUMPDEST PUSH2 0x93B DUP2 PUSH2 0xC73 JUMP JUMPDEST DUP3 MSTORE POP POP JUMP JUMPDEST PUSH1 0x0 PUSH2 0x94E PUSH1 0x1A DUP4 PUSH2 0xB7E JUMP JUMPDEST SWAP2 POP PUSH2 0x959 DUP3 PUSH2 0xD01 JUMP JUMPDEST PUSH1 0x20 DUP3 ADD SWAP1 POP SWAP2 SWAP1 POP JUMP JUMPDEST PUSH1 0x0 PUSH2 0x971 PUSH1 0x23 DUP4 PUSH2 0xB7E JUMP JUMPDEST SWAP2 POP PUSH2 0x97C DUP3 PUSH2 0xD2A JUMP JUMPDEST PUSH1 0x40 DUP3 ADD SWAP1 POP SWAP2 SWAP1 POP JUMP JUMPDEST PUSH1 0x0 PUSH2 0x994 PUSH1 0x25 DUP4 PUSH2 0xB7E JUMP JUMPDEST SWAP2 POP PUSH2 0x99F DUP3 PUSH2 0xD79 JUMP JUMPDEST PUSH1 0x40 DUP3 ADD SWAP1 POP SWAP2 SWAP1 POP JUMP JUMPDEST PUSH1 0x0 PUSH2 0x9B7 PUSH1 0x8 DUP4 PUSH2 0xB6D JUMP JUMPDEST SWAP2 POP PUSH2 0x9C2 DUP3 PUSH2 0xDC8 JUMP JUMPDEST PUSH1 0x20 DUP3 ADD SWAP1 POP SWAP2 SWAP1 POP JUMP JUMPDEST PUSH1 0x0 PUSH2 0x9DA PUSH1 0x13 DUP4 PUSH2 0xB7E JUMP JUMPDEST SWAP2 POP PUSH2 0x9E5 DUP3 PUSH2 0xDF1 JUMP JUMPDEST PUSH1 0x20 DUP3 ADD SWAP1 POP SWAP2 SWAP1 POP JUMP JUMPDEST PUSH2 0x9F9 DUP2 PUSH2 0xCC3 JUMP JUMPDEST DUP3 MSTORE POP POP JUMP JUMPDEST PUSH1 0x0 PUSH1 0x40 DUP3 ADD SWAP1 POP PUSH2 0xA14 PUSH1 0x0 DUP4 ADD DUP6 PUSH2 0x932 JUMP JUMPDEST PUSH2 0xA21 PUSH1 0x20 DUP4 ADD DUP5 PUSH2 0x932 JUMP JUMPDEST SWAP4 SWAP3 POP POP POP JUMP JUMPDEST PUSH1 0x0 PUSH1 0xA0 DUP3 ADD SWAP1 POP PUSH2 0xA3D PUSH1 0x0 DUP4 ADD DUP8 PUSH2 0x932 JUMP JUMPDEST PUSH2 0xA4A PUSH1 0x20 DUP4 ADD DUP7 PUSH2 0x932 JUMP JUMPDEST PUSH2 0xA57 PUSH1 0x40 DUP4 ADD DUP6 PUSH2 0x9F0 JUMP JUMPDEST PUSH2 0xA64 PUSH1 0x60 DUP4 ADD DUP5 PUSH2 0x9F0 JUMP JUMPDEST DUP2 DUP2 SUB PUSH1 0x80 DUP4 ADD MSTORE PUSH2 0xA75 DUP2 PUSH2 0x9AA JUMP JUMPDEST SWAP1 POP SWAP6 SWAP5 POP POP POP POP POP JUMP JUMPDEST PUSH1 0x0 PUSH1 0x40 DUP3 ADD SWAP1 POP PUSH2 0xA95 PUSH1 0x0 DUP4 ADD DUP6 PUSH2 0x932 JUMP JUMPDEST PUSH2 0xAA2 PUSH1 0x20 DUP4 ADD DUP5 PUSH2 0x9F0 JUMP JUMPDEST SWAP4 SWAP3 POP POP POP JUMP JUMPDEST PUSH1 0x0 PUSH1 0x20 DUP3 ADD SWAP1 POP DUP2 DUP2 SUB PUSH1 0x0 DUP4 ADD MSTORE PUSH2 0xAC2 DUP2 PUSH2 0x941 JUMP JUMPDEST SWAP1 POP SWAP2 SWAP1 POP JUMP JUMPDEST PUSH1 0x0 PUSH1 0x20 DUP3 ADD SWAP1 POP DUP2 DUP2 SUB PUSH1 0x0 DUP4 ADD MSTORE PUSH2 0xAE2 DUP2 PUSH2 0x964 JUMP JUMPDEST SWAP1 POP SWAP2 SWAP1 POP JUMP JUMPDEST PUSH1 0x0 PUSH1 0x20 DUP3 ADD SWAP1 POP DUP2 DUP2 SUB PUSH1 0x0 DUP4 ADD MSTORE PUSH2 0xB02 DUP2 PUSH2 0x987 JUMP JUMPDEST SWAP1 POP SWAP2 SWAP1 POP JUMP JUMPDEST PUSH1 0x0 PUSH1 0x20 DUP3 ADD SWAP1 POP DUP2 DUP2 SUB PUSH1 0x0 DUP4 ADD MSTORE PUSH2 0xB22 DUP2 PUSH2 0x9CD JUMP JUMPDEST SWAP1 POP SWAP2 SWAP1 POP JUMP JUMPDEST PUSH1 0x0 PUSH1 0x20 DUP3 ADD SWAP1 POP PUSH2 0xB3E PUSH1 0x0 DUP4 ADD DUP5 PUSH2 0x9F0 JUMP JUMPDEST SWAP3 SWAP2 POP POP JUMP JUMPDEST PUSH1 0x0 PUSH1 0x40 DUP3 ADD SWAP1 POP PUSH2 0xB59 PUSH1 0x0 DUP4 ADD DUP6 PUSH2 0x9F0 JUMP JUMPDEST PUSH2 0xB66 PUSH1 0x20 DUP4 ADD DUP5 PUSH2 0x932 JUMP JUMPDEST SWAP4 SWAP3 POP POP POP JUMP JUMPDEST PUSH1 0x0 DUP3 DUP3 MSTORE PUSH1 0x20 DUP3 ADD SWAP1 POP SWAP3 SWAP2 POP POP JUMP JUMPDEST PUSH1 0x0 DUP3 DUP3 MSTORE PUSH1 0x20 DUP3 ADD SWAP1 POP SWAP3 SWAP2 POP POP JUMP JUMPDEST PUSH1 0x0 PUSH2 0xB9A DUP3 PUSH2 0xCC3 JUMP JUMPDEST SWAP2 POP PUSH2 0xBA5 DUP4 PUSH2 0xCC3 JUMP JUMPDEST SWAP3 POP DUP3 PUSH32 0xFFFFFFFFFFFFFFFFFFFFFFFFFFFFFFFFFFFFFFFFFFFFFFFFFFFFFFFFFFFFFFFF SUB DUP3 GT ISZERO PUSH2 0xBDA JUMPI PUSH2 0xBD9 PUSH2 0xCCD JUMP JUMPDEST JUMPDEST DUP3 DUP3 ADD SWAP1 POP SWAP3 SWAP2 POP POP JUMP JUMPDEST PUSH1 0x0 PUSH2 0xBF0 DUP3 PUSH2 0xCC3 JUMP JUMPDEST SWAP2 POP PUSH2 0xBFB DUP4 PUSH2 0xCC3 JUMP JUMPDEST SWAP3 POP DUP2 PUSH32 0xFFFFFFFFFFFFFFFFFFFFFFFFFFFFFFFFFFFFFFFFFFFFFFFFFFFFFFFFFFFFFFFF DIV DUP4 GT DUP3 ISZERO ISZERO AND ISZERO PUSH2 0xC34 JUMPI PUSH2 0xC33 PUSH2 0xCCD JUMP JUMPDEST JUMPDEST DUP3 DUP3 MUL SWAP1 POP SWAP3 SWAP2 POP POP JUMP JUMPDEST PUSH1 0x0 PUSH2 0xC4A DUP3 PUSH2 0xCC3 JUMP JUMPDEST SWAP2 POP PUSH2 0xC55 DUP4 PUSH2 0xCC3 JUMP JUMPDEST SWAP3 POP DUP3 DUP3 LT ISZERO PUSH2 0xC68 JUMPI PUSH2 0xC67 PUSH2 0xCCD JUMP JUMPDEST JUMPDEST DUP3 DUP3 SUB SWAP1 POP SWAP3 SWAP2 POP POP JUMP JUMPDEST PUSH1 0x0 PUSH2 0xC7E DUP3 PUSH2 0xCA3 JUMP JUMPDEST SWAP1 POP SWAP2 SWAP1 POP JUMP JUMPDEST PUSH1 0x0 PUSH2 0xC90 DUP3 PUSH2 0xCA3 JUMP JUMPDEST SWAP1 POP SWAP2 SWAP1 POP JUMP JUMPDEST PUSH1 0x0 DUP2 ISZERO ISZERO SWAP1 POP SWAP2 SWAP1 POP JUMP JUMPDEST PUSH1 0x0 PUSH20 0xFFFFFFFFFFFFFFFFFFFFFFFFFFFFFFFFFFFFFFFF DUP3 AND SWAP1 POP SWAP2 SWAP1 POP JUMP JUMPDEST PUSH1 0x0 DUP2 SWAP1 POP SWAP2 SWAP1 POP JUMP JUMPDEST PUSH32 0x4E487B7100000000000000000000000000000000000000000000000000000000 PUSH1 0x0 MSTORE PUSH1 0x11 PUSH1 0x4 MSTORE PUSH1 0x24 PUSH1 0x0 REVERT JUMPDEST PUSH1 0x0 DUP1 REVERT JUMPDEST PUSH32 0x436F6E7472616374206D75737420626520617070726F7665642E000000000000 PUSH1 0x0 DUP3 ADD MSTORE POP JUMP JUMPDEST PUSH32 0x496E73756666696369656E7420616D6F756E742073656E7420746F2073656C6C PUSH1 0x0 DUP3 ADD MSTORE PUSH32 0x65722E0000000000000000000000000000000000000000000000000000000000 PUSH1 0x20 DUP3 ADD MSTORE POP JUMP JUMPDEST PUSH32 0x4D757374206F776E20746F6B656E20746F2062652061626C6520746F206C6973 PUSH1 0x0 DUP3 ADD MSTORE PUSH32 0x742069742E000000000000000000000000000000000000000000000000000000 PUSH1 0x20 DUP3 ADD MSTORE POP JUMP JUMPDEST PUSH32 0x5472616E73666572000000000000000000000000000000000000000000000000 PUSH1 0x0 DUP3 ADD MSTORE POP JUMP JUMPDEST PUSH32 0x496E73756666696369656E742066756E64732E00000000000000000000000000 PUSH1 0x0 DUP3 ADD MSTORE POP JUMP JUMPDEST PUSH2 0xE23 DUP2 PUSH2 0xC73 JUMP JUMPDEST DUP2 EQ PUSH2 0xE2E JUMPI PUSH1 0x0 DUP1 REVERT JUMPDEST POP JUMP JUMPDEST PUSH2 0xE3A DUP2 PUSH2 0xC85 JUMP JUMPDEST DUP2 EQ PUSH2 0xE45 JUMPI PUSH1 0x0 DUP1 REVERT JUMPDEST POP JUMP JUMPDEST PUSH2 0xE51 DUP2 PUSH2 0xC97 JUMP JUMPDEST DUP2 EQ PUSH2 0xE5C JUMPI PUSH1 0x0 DUP1 REVERT JUMPDEST POP JUMP JUMPDEST PUSH2 0xE68 DUP2 PUSH2 0xCC3 JUMP JUMPDEST DUP2 EQ PUSH2 0xE73 JUMPI PUSH1 0x0 DUP1 REVERT JUMPDEST POP JUMP INVALID LOG2 PUSH5 0x6970667358 0x22 SLT KECCAK256 0xFB 0x2D EQ RETURNDATASIZE PUSH4 0x8BD06634 0xA7 PUSH23 0x713FA2332F86357077E55A7A4193E5AEF084676E26473 PUSH16 0x6C634300080700330000000000000000 "
				},
				"gasEstimates": {
					"creation": {
						"codeDepositCost": "751200",
						"executionCost": "786",
						"totalCost": "751986"
					},
					"external": {
						"addListing(uint256,address,uint256)": "infinite",
						"balances(address)": "2836",
						"listings(address,uint256)": "infinite",
						"purchase(address,uint256,uint256)": "infinite",
						"withdraw(uint256,address)": "infinite"
					}
				},
				"methodIdentifiers": {
					"addListing(uint256,address,uint256)": "80abbe57",
					"balances(address)": "27e235e3",
					"listings(address,uint256)": "0007df30",
					"purchase(address,uint256,uint256)": "98968f15",
					"withdraw(uint256,address)": "00f714ce"
				}
			},
			"storageLayout": {
				"storage": [
					{
						"astId": 1798,
						"contract": "contracts/WatchTrader.sol:WatchTrader",
						"label": "listings",
						"offset": 0,
						"slot": "0",
						"type": "t_mapping(t_address,t_mapping(t_uint256,t_struct(Listing)1807_storage))"
					},
					{
						"astId": 1802,
						"contract": "contracts/WatchTrader.sol:WatchTrader",
						"label": "balances",
						"offset": 0,
						"slot": "1",
						"type": "t_mapping(t_address,t_uint256)"
					}
				],
				"types": {
					"t_address": {
						"encoding": "inplace",
						"label": "address",
						"numberOfBytes": "20"
					},
					"t_mapping(t_address,t_mapping(t_uint256,t_struct(Listing)1807_storage))": {
						"encoding": "mapping",
						"key": "t_address",
						"label": "mapping(address => mapping(uint256 => struct WatchTrader.Listing))",
						"numberOfBytes": "32",
						"value": "t_mapping(t_uint256,t_struct(Listing)1807_storage)"
					},
					"t_mapping(t_address,t_uint256)": {
						"encoding": "mapping",
						"key": "t_address",
						"label": "mapping(address => uint256)",
						"numberOfBytes": "32",
						"value": "t_uint256"
					},
					"t_mapping(t_uint256,t_struct(Listing)1807_storage)": {
						"encoding": "mapping",
						"key": "t_uint256",
						"label": "mapping(uint256 => struct WatchTrader.Listing)",
						"numberOfBytes": "32",
						"value": "t_struct(Listing)1807_storage"
					},
					"t_struct(Listing)1807_storage": {
						"encoding": "inplace",
						"label": "struct WatchTrader.Listing",
						"members": [
							{
								"astId": 1804,
								"contract": "contracts/WatchTrader.sol:WatchTrader",
								"label": "price",
								"offset": 0,
								"slot": "0",
								"type": "t_uint256"
							},
							{
								"astId": 1806,
								"contract": "contracts/WatchTrader.sol:WatchTrader",
								"label": "seller",
								"offset": 0,
								"slot": "1",
								"type": "t_address"
							}
						],
						"numberOfBytes": "64"
					},
					"t_uint256": {
						"encoding": "inplace",
						"label": "uint256",
						"numberOfBytes": "32"
					}
				}
			},
			"userdoc": {
				"kind": "user",
				"methods": {},
				"version": 1
			}
		}
	}
}